:100000000C9497020C94E0020C94E0020C94E00231
:100010000C94E0020C94E0020C94E0020C94E002D8
:100020000C94E0020C94E0020C94C90A0C94E002D7
:100030000C94F9180C94E0020C94E0020C94E00289
:100040000C94E0020C94E0020C94E0020C94E002A8
:100050000C94E0020C9437190C94E0020C94E0022A
:100060000C94E0020C94E0020C94E0020C94E00288
:100070000C94E0020C94E0020C94E0020C94E00278
:100080000C94E0020C94E0020C94E0020C94E00268
:100090000C94E0020C94E002C30BE50BD30CE50BCF
:1000A000D30C2A0C4D0CD30CA20CB50C9A0F9A0F42
:1000B000C70FC70FFD11FD11FD11FD111F10FD111F
:1000C00018111811D311FD11FD11E9110D0A0025A8
:1000D00030345828253032582925630029352BE043
:1000E000E1E0001E140464E33A1F1A161DE23B20EF
:1000F00008071B003C21150906003D22170A1900BC
:100100003E231C0B052C3F24180D110040250C0E1E
:1001100010004126120F36000027133337E6422D18
:100120002F3438E7432E3032E550443100000000D0
:10013000452A3128E5E446494C000050474A4D0025
:100140005251484B4E00004F5B735D004B65796226
:100150006F6172642073746172742E0A0055534289
:1001600020636F6E666967757265642E0A005B575F
:100170005D005B535D005B525D005B445D005B4373
:100180005D002803430061007000730065006E008D
:1001900073006500200043006F006E007400720061
:1001A0006F006C006C0065007200000008035400D2
:1001B0004D004B0000000403090409024200020143
:1001C00000A032090400000103010100092111010E
:1001D0000001223F000705810308000A090401000D
:1001E000020300000009211101000122200007057F
:1001F0008203200001070502032000011201100103
:1002000000000008EDFECC100001010200010631E3
:10021000FF0974A1010975150025FF952075088156
:10022000020976150025FF952075089102C0050189
:100230000906A101050719E029E715002501950820
:1002400075018102950175088101050819012905CB
:100250009505750191029501750391010507190036
:1002600029FF150025FF950675088100C00A0025A5
:1002700030325820006B6579626F6172645F72651D
:10028000706F72743A20000A0025303258006B6596
:1002900079626F6172645F7365745F6C65643A2044
:1002A000003F00433E20004C25640A000A092D202F
:1002B000436F6E736F6C65202D0A4553432F713A5F
:1002C00009717569740A000A092D204D6167696317
:1002D000202D0A643A0964656275670A783A0964F0
:1002E00065627567206D61747269780A6B3A09649A
:1002F00065627567206B6579626F6172640A6D3A39
:10030000096465627567206D6F7573650A763A09D1
:1003100076657273696F6E0A733A097374617475E6
:10032000730A633A09636F6E736F6C65206D6F6457
:10033000650A302D343A096C61796572302D3428A4
:100340004631302D4634290A506175733A09626F7F
:100350006F746C6F616465720A003F0074696D654B
:10036000725F636F756E743A202530346C580A00E2
:100370006B6579626F6172645F69646C653A2025B0
:10038000580A006B6579626F6172645F70726F7496
:100390006F636F6C3A2025580A00686F73745F6B47
:1003A0006579626F6172645F6C65647328293A20B5
:1003B00025580A000A092D20537461747573202D85
:1003C0000A004743433A20342E392E3220415652F8
:1003D0002D4C4942433A20322E302E302041565285
:1003E0005F415243483A2061767235310A004F50DE
:1003F00054494F4E533A204C55464120434F4E539B
:100400004F4C4520434F4D4D414E442034303936FA
:100410000A004255494C443A20333731653363640E
:100420002D6469727479202830303A33383A343880
:10043000204D61792031362032303138290A00567A
:1004400049443A2030784645454428544D4B2920AC
:100450005049443A20307831304343284361707327
:10046000656E736520436F6E74726F6C6C65722974
:10047000205645523A203078303130300A00444519
:1004800053433A20544D4B20436F6E74726F6C6C23
:10049000657220666F7220546F7072650A000A09D7
:1004A0002D2056657273696F6E202D0A000A6D6FDC
:1004B0007573653A206F66660A000A6D6F7573651D
:1004C0003A206F6E0A000A6B6579626F6172643A56
:1004D000206F66660A000A6B6579626F6172643A22
:1004E000206F6E0A000A6D61747269783A206F6637
:1004F000660A000A6D61747269783A206F6E0A00AC
:100500000A64656275673A206F6E0A000A64656264
:1005100075673A206F66660A000A0A626F6F746C2C
:100520006F616465722E2E2E2000433E2000112440
:100530001FBECFEFD0E2DEBFCDBF04B603FE27C0A3
:100540008091D5029091D602A091D702B091D802A5
:100550008730904BA740B04BD1F41092D502109247
:10056000D6021092D7021092D80214BE84B7877FA9
:1005700084BF0FB6F894A89580916000886180933D
:100580006000109260000FBEE0E0F8EF099511E006
:10059000A0E0B1E0E6E5F6E300E00BBF02C00790A3
:1005A0000D92AE30B107D9F722E0AEE0B1E001C064
:1005B0001D92A53DB207E1F70E94F5070C94291B97
:1005C0000C940000FF93EF93E0910E01F0910F0166
:1005D000309709F00995EF91FF910895FC018591FD
:1005E000803011F0EFDFFBCF0895FF27E0E230E22B
:1005F00047FF0CC0419597FF09C0EDE260957095EB
:1006000080959095611D711D811D911D27FF02C070
:10061000219530E350E2AA27660F771F881F991FA4
:10062000AA1FA41710F0A41B63955A95A9F7AA3026
:1006300008F0A95FA05DAF93F39561157105810581
:10064000910541F7ED3211F4EF93F395F21718F499
:100650003F93F395FBCF8F91B5DFFA95E1F70895BE
:10066000E991F9918591803021F0853219F0AADF66
:10067000F9CF089520E0E89455915532C1F35033F5
:1006800011F4689455915A3348F4505390F3220F63
:10069000022E220F220F200D250FF4CF0EF42195EC
:1006A00089919991533619F3533729F1533559F1FB
:1006B000BC0188279927E8945C3621F489919991A7
:1006C00068945591543639F446EF7EF077FF0DC0AB
:1006D0008FEF9FEF0AC055374AE039F0583540E1B7
:1006E00021F0523642E009F00895FF93EF937DDF49
:1006F000EF91FF91B7CFFF93EF93FC018191803091
:10070000B9F360DFFBCFFF93EF9368DFF1CFDF93A7
:10071000CF93CDB7DEB72596A3DFCF91DF910895B4
:100720000895BF92CF92DF92EF92FF920F931F93A3
:10073000CF93DF9380ECE8E0F2E0DF011D928A9531
:10074000E9F780E2E8E8F1E0DF011D928A95E9F738
:1007500080E6E8EAF1E0DF011D928A95E9F730E4EE
:10076000B32E88EAE82E81E0F82EC0E065E58C2FF4
:100770000E940B056AEA8C2F0E940B0500E010E036
:100780006701C00ED11EF601D081802F0E947B052B
:1007900096958795969587958D0FD695D6958D1BB1
:1007A000D6018C93B5E3BA95F1F700000F5F1F4FA8
:1007B0000630110529F70E94C805CF5FE6E0EE0E6E
:1007C000F11CC03199F6BA94B110CBCFDF91CF9123
:1007D0001F910F91FF90EF90DF90CF90BF90089501
:1007E0008F929F92AF92BF92CF92DF92EF92FF9241
:1007F0001F93CF93DF93C8E8D1E088E0E82E82E032
:10080000F82E10E0CC24C394D12C65E5812F0E94F2
:100810000B056AEA812F0E940B05812C912CA12CDB
:10082000B12C8A2D0E947B054A2DF701E80DF91D98
:10083000918380838135910560F06881798196018B
:100840000A2C02C0220F331F0A94E2F7262B372B03
:1008500010C08033910578F496010A2C02C0220F53
:10086000331F0A94E2F72095309568817981262319
:10087000372339832883960102C0220F331F4A95FC
:10088000E2F7A9012881398124233523232B21F084
:100890009C013061318320833FEFA31AB30A82E0C9
:1008A000880E911C2CE08216910409F0BACF0E94A8
:1008B000C8051F5F22963CE0E30EF11C103109F0E1
:1008C000A4CF80E0DF91CF911F91FF90EF90DF9058
:1008D000CF90BF90AF909F908F900895E82FF0E059
:1008E000EE0FFF1FE857FE4F808108956F927F92B1
:1008F0008F929F92AF92BF92CF92DF92EF92FF9230
:100900000F931F93CF93DF9398EA692E91E0792E8E
:1009100028E0822E22E0922E08E811E0AA24A39477
:10092000B12C4FECE42E40E0F42E5CECC52E50E0F0
:10093000D52EC0E0D0E0F8018081918195010C2E88
:1009400002C0220F331F0A94E2F782239323892BDC
:1009500011F480E201C08AE21F928F93F301EC0F41
:10096000FD1F80811F928F93FE01EE0FFF1FE80D88
:10097000F91D81818F9380818F93FF92EF920E9466
:10098000870321968DB79EB708960FB6F8949EBF41
:100990000FBE8DBFC630D10571F6DF92CF920E9497
:1009A000870396E0690E711CECE08E0E911C0E5FC1
:1009B0001F4F0F900F90F8EC8F16F2E09F0609F092
:1009C000B8CFDF91CF911F910F91FF90EF90DF9003
:1009D000CF90BF90AF909F908F907F906F90089531
:1009E00008950895089596E0799FF00111249CE6FA
:1009F000899FE00DF11D1124E60FF11DE452FF4F18
:100A000084910895E82FF0E0EE0FFF1FE45AF040C4
:100A10008591949108959FEF9AB91BB897B918B82A
:100A200091B1962B91B922B1962F9095292322B995
:100A300020B3262B20BB21B3292321BB2098289843
:100A4000482F477021E030E0F90102C0EE0FFF1F90
:100A50004A95E2F7AF017E2F082E01C0220F0A94BB
:100A6000EAF7522F342F3095209540E4E1B1E92385
:100A7000E1B9E2B1E923E2B9E0B3E62BE0BBE1B3CF
:100A8000E923E1BB883038F4EAB1E52BEAB9EBB1F0
:100A9000E52BEBB906C0E7B1E72BE7B9E8B1E72BE7
:100AA000E8B9E0B3E923E0BBE1B3E923E1BBE1B19D
:100AB000E62BE1B9E2B1E923E2B9883038F4EAB1D2
:100AC000E52BEAB9EBB1E223EBB906C0E7B1E72BBE
:100AD000E7B9E8B1E323E8B9415041F681B1892390
:100AE00081B982B1892382B980B3682B60BB81B39D
:100AF000982391BB089580937C0090917A009F7712
:100B000090937A0090917B00906490937B0021E019
:100B100030E001C0220F8A95EAF780B3922F9095BA
:100B2000892380BB81B3892381BB81B1822B81B9A9
:100B300082B1892382B9209A289AF89440E050E043
:100B400000B605FE03C04F5F5F4FFACF7894209840
:100B5000289881B1892381B982B1892382B980B370
:100B6000892380BB81B3892381BB80917B008F7BEC
:100B700080937B0081B1822B81B982B1892382B9B4
:100B800080B3282B20BB81B3982391BBCA01089561
:100B900081B18FEF81B992B112B890B380BB81B3AC
:100BA00011BA209A2898089580911B0108950895FC
:100BB0009FB7F894109212019FBF9091CC0294308D
:100BC00009F057C09091E9009F703091EC00232FFD
:100BD000217030FD20E8922B22E02093E900209143
:100BE000EB0020FF43C02091EE0027FF3FC0209183
:100BF0001001222321F02091E80025FF37C0109238
:100C0000100126E03091E80035FD15C03091CC028E
:100C1000343061F53091EB0035FD28C0215021F4CE
:100C200081E08093100122C0EFE9FFE03197F1F7F6
:100C300000C00000E7CF8093F1008091E80085FDBF
:100C40000AC08091E80080FFFCCF8091E8008E7799
:100C50008093E80006C08FB7F89421E0209312013A
:100C60008FBF9F709093E90080E008959F709093EC
:100C7000E9008FEF0895CF93DF9300D01F92CDB797
:100C8000DEB72091CC02243021F523E029839B8319
:100C90008A8381E08093E9008FEF9091E800815092
:100CA00095FD06C095ED9A95F1F700008111F5CFFD
:100CB0008091E80085FF0DC040E050E063E070E007
:100CC000CE0101960E94B8088091E8008E7780934B
:100CD000E8000F900F900F90DF91CF910895CF9380
:100CE000DF9300D01F92CDB7DEB72091CC02243025
:100CF00021F522E029839B838A8381E08093E900A8
:100D00008FEF9091E800815095FD06C095ED9A9582
:100D1000F1F700008111F5CF8091E80085FF0DC04B
:100D200040E050E063E070E0CE0101960E94B80818
:100D30008091E8008E778093E8000F900F900F90DD
:100D4000DF91CF910895CF93DF932091CC0224308F
:100D500039F521E02093E9002FEF3091E800215090
:100D600035FD06C035ED3A95F1F700002111F5CFBC
:100D70002091E80025FF14C0EC0140E050E068E05D
:100D800070E00E94B8088091E8008E778093E800B8
:100D900088E0FE01A3E1B1E001900D928A95E1F7B0
:100DA000DF91CF9108958EE791E00E94EE0280914D
:100DB000CB02811109C00E944B0A0E94AD0A8091AA
:100DC000E20084608093E20008958AE791E00E9447
:100DD000EE021092CB02089586E791E00C94EE02A9
:100DE00082E791E00C94EE028EE691E00E94EE0222
:100DF0000C94F718209111012F5F822F62E30E945B
:100E0000141B992319F020931101089510921101D8
:100E100080911201882371F18091CC02843041F5D8
:100E20008091E9008F702091EC00922F917020FD4D
:100E300090E8892B92E09093E9009091EB0090FF6D
:100E400014C09091EE0097FF10C09091E80095FFBC
:100E500003C01092F100F9CF9091E80090FF05C017
:100E60009091E8009E779093E8008F708093E9005E
:100E700010921201089542E061EC81E00E94C509E0
:100E800042E261EC82E00C94C5098091CE0283308D
:100E900009F453C030F4813071F0823009F48CC011
:100EA00008958A3009F478C08B3009F45EC0893027
:100EB00009F09AC020C08091CD02813A09F094C017
:100EC0008091E800877F8093E8008091D102909123
:100ED000D202892B21F468E083E191E003C060E055
:100EE00080E090E070E00E9405098091E8008B7737
:100EF0008093E80008958091CD02813209F074C09A
:100F00008091D1029091D202892B09F06DC080911D
:100F1000E800877F8093E8008091E80082FD05C0AB
:100F20008091CC028111F8CF5FC08091F100809355
:100F30001B018091E8008B7753C08091CD02813AEC
:100F400009F052C08091D1029091D202892B09F010
:100F50004BC08091E800877F8093E8008091E80093
:100F600080FFFCCF80910A0136C08091CD02813292
:100F7000D9F58091D1029091D202892BA9F5809167
:100F8000E800877F8093E8000E94FA098091CF02F1
:100F900080930A010C9412128091CD02813221F5C6
:100FA0008091E800877F8093E8000E94FA09809191
:100FB000D00280931C0108958091CD02813AA1F462
:100FC0008091E800877F8093E8008091E80080FFAF
:100FD000FCCF80911C018093F1008091E8008E7716
:100FE0008093E8000C94FA09089584B7877F84BF42
:100FF0000FB6F894A8958091600088618093600096
:10100000109260000FBE90E080E80FB6F8948093D5
:101010006100909361000FBE0E948C0D0E944B0AEC
:101020000E94AD0A8091E20084608093E20088ED26
:1010300095E00E94B51878948091CC02843019F024
:101040000E94EB0CF9CF8DE591E00E94EE020E9428
:101050008E0D80E091E00E94060D8CE491E00E94EC
:10106000EE028091CC02853089F488E491E00E9400
:10107000EE020E94BA188091CA02882391F30E945E
:10108000E318882371F30E94A208EBCF0E94BA0DE7
:101090000E94EB0CE6CF292F332723303105C9F00E
:1010A00064F42130310581F02230310509F042C06D
:1010B00082E490E02AEB31E041C021323105F1F0C9
:1010C0002232310549F136C082E190E02CEF31E067
:1010D00035C099278130910541F08230910541F06A
:1010E000892B41F5E6EBF1E005C0ECEAF1E002C046
:1010F000E2E8F1E0849190E09F0120C0662339F09E
:101100006130C1F489E090E025EE31E017C089E05C
:1011100090E02CEC31E012C0662339F0613051F4DC
:1011200080E290E02EE032E009C08FE390E02EE212
:1011300032E004C080E090E020E030E0FA0131834A
:101140002083089584E189BD86E189BD09B400FE4C
:10115000FDCF8091D8008F7D8093D8008091E000F2
:1011600082608093E0008091E00081FDFCCF0895D3
:10117000CF92DF92EF92FF920F931F93CF93DF9363
:10118000EC018B017A010E94190A811135C0E1142A
:10119000F10439F0F70180819181081B190BC80F08
:1011A000D91FC12CD12C0115110529F18091E8001E
:1011B00085FD18C08091E8008E778093E8000E943A
:1011C000EB0CE114F10449F0F70180819181C80E24
:1011D000D91ED182C08285E00FC00E94190A8823DF
:1011E00011F30AC089918093F10001501109FFEFBA
:1011F000CF1ADF0AD8CF80E0DF91CF911F910F91F6
:10120000FF90EF90DF90CF9008952091D30230911E
:10121000D4022617370748F06115710539F420917B
:10122000E8002E772093E80001C0B90140E0611585
:10123000710599F12091CC02222309F441C0253097
:1012400009F440C02091E80023FD3EC02091E80051
:1012500022FD30C02091E80020FFE9CF2091F2006C
:101260003091F300FC01CF016115710559F0283070
:10127000310540F481918093F100615071092F5F35
:101280003F4FF1CF41E02830310509F040E0209197
:10129000E8002E772093E800CACF4111CBCF0AC0D7
:1012A0008091CC02882361F0853061F08091E80064
:1012B00083FD0AC08091E80082FFF2CF80E00895AC
:1012C00082E0089583E0089581E008952091D3029B
:1012D0003091D4022617370748F06115710539F4AB
:1012E0002091E8002E772093E80001C0B901FC01AD
:1012F00020E06115710581F18091CC02882309F409
:101300003EC0853009F43DC08091E80083FD3BC0BC
:101310008091E80082FD2DC08091E80080FFE9CF38
:101320008091F2009091F3006115710559F08830B9
:10133000910540F424912093F10031966150710998
:101340000196F2CF21E0089709F020E08091E800B3
:101350008E778093E800CDCF2111CECF0AC0809147
:10136000CC02882361F0853061F08091E80083FD34
:101370000AC08091E80082FFF2CF80E0089582E009
:10138000089583E0089581E00895982F973058F5E7
:101390009093E900981739F07091EC002091ED00DE
:1013A0005091F00003C0242F762F50E021FF19C088
:1013B0003091EB003E7F3093EB003091ED003D7FAC
:1013C0003093ED003091EB0031603093EB0070937F
:1013D000EC002093ED005093F0002091EE0027FFE9
:1013E00007C09F5FD3CF8F708093E90081E008959D
:1013F00080E008958091CD0287FF11C08091E800C0
:1014000082FD05C08091CC028111F8CF11C080917E
:10141000E8008B770BC08091CC02882349F0809143
:10142000E80080FFF8CF8091E8008E778093E80095
:1014300008952091E4003091E50095E64091EC009C
:10144000842F817040FF22C08091E80080FD1CC085
:101450008091CC02882391F0853091F08091EB004F
:1014600085FD10C04091E4005091E50042175307FC
:1014700029F39A01915011F784E0089582E00895CC
:1014800083E0089581E0089580E008954091E800A8
:1014900042FFDECF08950E94BC0A0E94C40AE0EE1B
:1014A000F0E0808181608083E8EDF0E080818F77DB
:1014B000808319BCA7EDB0E08C918E7F8C938081E6
:1014C0008F7E80831092CB0208950F931F93CF934A
:1014D000DF930E94BC0A0E94C40AC8EDD0E0888154
:1014E0008F77888388818068888388818F7D8883CF
:1014F000E7EDF0E080818068808319BC1092CC0217
:101500001092C8021092CA021092C90200EE10E0B6
:10151000F80180818B7F808388818160888342E0AD
:1015200060E080E00E94C509E1EEF0E080818E7FFE
:101530008083E2EEF0E0808181608083808188603A
:101540008083F80180818E7F808388818061888399
:10155000DF91CF911F910F910895E8EDF0E0808128
:101560008F7E8083E7EDF0E080818160808381E081
:101570008093CB020C94650AE8EDF0E080818C7FCB
:1015800080831092E20008951092DA001092E10038
:1015900008951F920F920FB60F9211240BB60F925F
:1015A0002F933F934F935F936F937F938F939F936B
:1015B000AF93BF93EF93FF938091E10082FF0BC045
:1015C0008091E20082FF07C08091E1008B7F8093D1
:1015D000E1000E94FA068091DA0080FF1FC080912E
:1015E000D80080FF1BC08091DA008E7F8093DA00E4
:1015F0008091D90080FF0DC084E189BD86E189BD5D
:1016000009B400FEFDCF81E08093CC020E94D30696
:1016100005C019BC1092CC020E94E5068091E10041
:1016200080FF19C08091E20080FF15C08091E20028
:101630008E7F8093E2008091E20080618093E200DF
:101640008091D80080628093D80019BC85E0809397
:10165000CC020E94F0068091E10084FF30C08091AE
:10166000E20084FF2CC084E189BD86E189BD09B414
:1016700000FEFDCF8091D8008F7D8093D8008091AF
:10168000E1008F7E8093E1008091E2008F7E809365
:10169000E2008091E20081608093E2008091C802C4
:1016A000882311F084E007C08091E30087FD02C029
:1016B00081E001C083E08093CC020E94F406809117
:1016C000E10083FF24C08091E20083FF20C080916D
:1016D000E100877F8093E10082E08093CC0210924A
:1016E000C8028091E1008E7F8093E1008091E2004A
:1016F0008E7F8093E2008091E20080618093E2001F
:1017000042E060E080E00E94C5090E94EC06FF9183
:10171000EF91BF91AF919F918F917F916F915F9169
:101720004F913F912F910F900BBE0F900FBE0F90D6
:101730001F9018951F93CF93DF93CDB7DEB7AA976D
:101740000FB6F894DEBF0FBECDBFEDECF2E088E03F
:101750008E0F9091F10091938E13FBCF0E9445075D
:101760008091E80083FF1FC18091CD029091CE024D
:10177000492F50E04A30510508F015C1FA01E45BE9
:10178000FF4F0C94201B803881F0823809F00BC188
:101790008091D1028F708093E9008091EB0085FBEE
:1017A000882780F91092E90006C08091C9029091C3
:1017B000CA02911182609091E800977F9093E800AF
:1017C0008093F1001092F100C8C0282F2D7F09F0FE
:1017D000EAC0882319F0823061F0E5C08091CF0221
:1017E000813009F0E0C0933009F080E08093CA02B4
:1017F0002BC08091CF02811127C08091D1028F70C0
:1018000009F4D1C08093E9002091EB0020FF1CC0B7
:10181000933021F48091EB00806214C09091EB0032
:1018200090619093EB0021E030E0A90102C0440FE9
:10183000551F8A95E2F74093EA001092EA008091E2
:10184000EB0088608093EB001092E9008091E80043
:10185000877F86C08111A7C01091CF021F7780912A
:10186000E3008078812B8093E3008091E800877FFC
:101870008093E8000E94FA098091E80080FFFCCF85
:101880008091E30080688093E300111102C082E040
:1018900001C083E08093CC0286C08058823008F07B
:1018A00082C08091CF029091D0028C3D53E0950789
:1018B00079F583E08A838AE289834FB7F894DE0161
:1018C000139620E03EE051E2E32FF0E05093570002
:1018D000E49120FF03C0E295EF703F5FEF708E2F21
:1018E00090E0EA3010F0C79601C0C0968D939D93AA
:1018F0002F5F243149F74FBF8091E800877F8093A5
:10190000E8006AE270E0CE0101960E94050914C069
:10191000AE014F5F5F4F6091D1020E944B08BC0146
:10192000892B09F440C09091E800977F9093E800DC
:1019300089819A810E9466098091E8008B77809363
:10194000E80031C0803879F58091E800877F809386
:10195000E8008091C8028093F1008091E8008E77C2
:101960008093E8000E94FA091EC081111CC090916A
:10197000CF029230C0F48091E800877F8093E80026
:101980009093C8020E94FA098091C802811106C092
:101990008091E30087FD02C081E001C084E0809374
:1019A000CC020E943B078091E80083FF0AC080912F
:1019B000E800877F8093E8008091EB00806280934D
:1019C000EB00AA960FB6F894DEBF0FBECDBFDF9135
:1019D000CF911F910895CF938091CC028823A1F0DD
:1019E000C091E900CF709091EC00892F817090FD3B
:1019F00080E8C82B1092E9008091E80083FD0E94E6
:101A00009A0BCF70C093E900CF9108959093220173
:101A1000809321010895E0912101F09122013097F6
:101A200021F00190F081E02D099480E00895EF927B
:101A3000FF920F931F93CF93DF93E0912101F091D9
:101A400022013097B1F18C010280F381E02D0995DC
:101A50008091810182FF2DC080FF04C085E792E064
:101A60000E94EE02E80118E08FE6E82E82E0F82EF0
:101A70008091810180FF0BC088811F928F93FF921C
:101A8000EF920E9487030F900F900F900F901150CC
:101A900021961111EDCF8091810180FF0AC08DE662
:101AA00092E0DF91CF911F910F91FF90EF900C94F6
:101AB000EE02DF91CF911F910F91FF90EF9008956B
:101AC00020911F01309120018217930771F09093AC
:101AD000200180931F01E0912101F09122013097B4
:101AE00021F00680F781E02D0994089520911D01D1
:101AF00030911E018217930771F090931E0180931D
:101B00001D01E0912101F0912201309721F0008424
:101B1000F185E02D099408950C9490030E942219F8
:101B20000C949103CF93C82F8091810182FF1EC036
:101B300080FF04C08EE892E00E94EE028091810155
:101B400080FF0CC01F92CF9389E892E09F938F9300
:101B50000E9487030F900F900F900F90809181014A
:101B600080FF04C087E892E00E94EE028C2FCF91A4
:101B70000C94F204CF92DF92EF92FF920F931F9397
:101B8000CF93DF93CDB7DEB72B970FB6F894DEBFB8
:101B90000FBECDBF0E94F00384E2C82E81E0D82E94
:101BA00000E010E0E02E802F0E946E04F6014191CB
:101BB0006F01F42EF826B1F40F5F1F4F02311105AB
:101BC00089F78FEF89838A831B820E942B1981609A
:101BD000782F9D838C8349815A816B818D810E94EE
:101BE0005B0E40C09091810191FF04C08B870E94E1
:101BF00076048B8520E030E04F2D50E0922FBA0123
:101C0000022E02C0759567950A94E2F760FF24C022
:101C10002E83EF8221E030E0690102C0CC0CDD1C94
:101C20009A95E2F790E08C219D21892B09F420E020
:101C300028870E942B198160782F9A8789874E8187
:101C40005F8168858A850E945B0EF801EC5DFE4F1E
:101C50008081C826C08206C02F5F3F4F26303105E5
:101C600069F6AACF109123010E940B0D1817A1F05D
:101C70000E940B0D809323012B960FB6F894DEBFC4
:101C80000FBECDBFDF91CF911F910F91FF90EF90CD
:101C9000DF90CF900C94920D2B960FB6F894DEBF88
:101CA0000FBECDBFDF91CF911F910F91FF90EF90AD
:101CB000DF90CF900895CF93DF93CDB7DEB72B970A
:101CC0000FB6F894DEBF0FBECDBF4F83588769872C
:101CD0007A878B87DE01119686E0FD0111928A9545
:101CE000E9F785E0FE01379601900D928A95E1F7BC
:101CF00049815A816B817C818D819E810E94AC14C7
:101D00002B960FB6F894DEBF0FBECDBFDF91CF91FB
:101D10000895CF93882309F499C0C82F8CEF8C0FB6
:101D2000813A48F48C2F0E94C51A81118FC08C2FE4
:101D30000E9448170CC080E28C0F883058F4C7709E
:101D400081E001C0880FCA95EAF70E948417CF91FD
:101D50000C94BB178BE58C0F833078F4C53A29F0CF
:101D6000C63A31F083E890E005C081E890E002C017
:101D700082E890E0CF910C94600D88E58C0F833160
:101D800008F064C0C83A39F1C93A41F1CA3A49F198
:101D9000CB3A51F1CC3A59F1CD3A61F1C03B69F1FE
:101DA000CE3A71F1CF3A79F1C13B81F1C23B89F171
:101DB000C33B91F1C43B99F1C53BA1F1C63BA9F1ED
:101DC000C73BB1F1C83BB9F1C93BC1F1CA3BC9F14D
:101DD00080E090E038C082EE90E035C089EE90E07F
:101DE00032C08AEE90E02FC085EB90E02CC086EBED
:101DF00090E029C087EB90E026C08CEC90E023C0F7
:101E00008DEC90E020C083E891E01DC08AE891E06D
:101E10001AC082E991E017C084E991E014C081E220
:101E200092E011C083E292E00EC084E292E00BC027
:101E300085E292E008C086E292E005C087E292E087
:101E400002C08AE292E0CF910C94760DCF91089572
:101E5000882329F19CEF980F913A18F40E94651796
:101E60000DC090E2980F983058F4877091E001C04F
:101E7000990F8A95EAF7892F0E948A170C94BB174D
:101E80009BE5980F933020F480E090E00C94600D77
:101E9000885A833120F480E090E00C94760D089508
:101EA000882321F00E9484170C94BB17089588237F
:101EB00021F00E948A170C94BB170895CF92DF92ED
:101EC000EF92FF920F931F93CF93DF9300D000D038
:101ED00000D0CDB7DEB725E0FC01DE011196019000
:101EE0000D922A95E1F7FC0130812181F280058174
:101EF00002950F7043815481452B09F47EC22F3F18
:101F000019F43F3F09F479C26C0139832A8389812E
:101F10009A810E940717182F9E830E9406170E941D
:101F2000CD152E81E22FE295EF70F0E0EA5AFF4FD7
:101F30000C94201B822F807F922F9F70092F882363
:101F400011F00295007FFF2049F0002309F406C23A
:101F5000802F0E9494170E94BB1700C2812F0E94FD
:101F6000280F002309F449C2802F0E949A17269651
:101F70000FB6F894DEBF0FBECDBFDF91CF911F919A
:101F80000F91FF90EF90DF90CF900C94BB17822FB2
:101F9000807F922F9F70803211F4892F03C0892F88
:101FA0008295807F112319F0113009F12AC0FF209A
:101FB000A1F0002381F1013071F526960FB6F89457
:101FC000DEBF0FBECDBFDF91CF911F910F91FF906C
:101FD000EF90DF90CF900C94A417002319F00130FC
:101FE00009F40BC28E830E94A7178E813BC1FF208C
:101FF00021F0063008F001C20EC0053008F0FDC126
:1020000031C1FF20C1F0002331F0F601958190FF2E
:10201000A5C19F70958326960FB6F894DEBF0FBEBC
:10202000CDBFDF91CF911F910F91FF90EF90DF9087
:10203000CF900C94500F002309F414C1A3C1822F38
:10204000837009F077C0F110D8C1812F82958695F1
:102050008770880F880F912F9F70C92ED12CE12C8B
:10206000F12C082E04C0CC0CDD1CEE1CFF1C0A94C5
:10207000D2F714FF12C04FE050E060E070E004C0FF
:10208000440F551F661F771F8A95D2F7CB01BA01FF
:10209000609570958095909503C060E070E0CB01ED
:1020A000269526952370422F50E042305105D1F0FD
:1020B0004330510559F16C297D298E299F294130E2
:1020C000510541F126960FB6F894DEBF0FBECDBF85
:1020D000DF91CF911F910F91FF90EF90DF90CF9004
:1020E0000C94F4156C297D298E299F2926960FB60C
:1020F000F894DEBF0FBECDBFDF91CF911F910F913E
:10210000FF90EF90DF90CF900C9410160E94F41582
:10211000C701B60126960FB6F894DEBF0FBECDBF3D
:10212000DF91CF911F910F91FF90EF90DF90CF90B3
:102130000C94D815FF2019F0822F817001C086956C
:10214000882309F45AC1812F829586958770880F5C
:10215000880F912F9F70C92ED12CE12CF12C082EC5
:1021600004C0CC0CDD1CEE1CFF1C0A94D2F714FF3B
:1021700012C04FE050E060E070E004C0440F551F13
:10218000661F771F8A95D2F7CB01BA0160957095CB
:102190008095909503C060E070E0CB012695269570
:1021A0002370422F50E042305105D1F043305105A9
:1021B00059F16C297D298E299F294130510541F122
:1021C00026960FB6F894DEBF0FBECDBFDF91CF913C
:1021D0001F910F91FF90EF90DF90CF900C94CE164F
:1021E0006C297D298E299F2926960FB6F894DEBF8B
:1021F0000FBECDBFDF91CF911F910F91FF90EF9058
:10220000DF90CF900C94EA160E94CE16C701B6015B
:1022100026960FB6F894DEBF0FBECDBFDF91CF91EB
:102220001F910F91FF90EF90DF90CF900C94B2161A
:10223000103F41F118F4103E48F48BC0123F09F4EE
:1022400050C0D8F1133F09F460C083C01F70822FC3
:102250008F71FF2021F00E944B16812FDCCE0E944F
:102260006C16812F26960FB6F894DEBF0FBECDBF39
:10227000DF91CF911F910F91FF90EF90DF90CF9062
:102280000C94570FFF20A9F0053008F0B6C0822F3C
:102290008F7126960FB6F894DEBF0FBECDBFDF91CB
:1022A000CF911F910F91FF90EF90DF90CF900C9402
:1022B0009116063008F0A1C0EACFFF20A1F0822FCE
:1022C0008F7126960FB6F894DEBF0FBECDBFDF919B
:1022D000CF911F910F91FF90EF90DF90CF900C94D2
:1022E0004B16FF2061F3822F8F7126960FB6F8945C
:1022F000DEBF0FBECDBFDF91CF911F910F91FF9039
:10230000EF90DF90CF900C946C16FF2091F0822F0D
:102310008F7126960FB6F894DEBF0FBECDBFDF914A
:10232000CF911F910F91FF90EF90DF90CF900C9481
:10233000361626960FB6F894DEBF0FBECDBFDF91DE
:10234000CF911F910F91FF90EF90DF90CF900C9461
:102350002C16FF20A1F0002309F4B1CF812F26967F
:102360000FB6F894DEBF0FBECDBFDF91CF911F91A6
:102370000F91FF90EF90DF90CF900C94890E002387
:1023800009F4B1CF812F26960FB6F894DEBF0FBEA9
:10239000CDBFDF91CF911F910F91FF90EF90DF9014
:1023A000CF900C94280F422F4F70612FC6010E94CE
:1023B000B11826960FB6F894DEBF0FBECDBFDF91E1
:1023C000CF911F910F91FF90EF90DF90CF900C94E1
:1023D0005015422F4F70612FC60126960FB6F89404
:1023E000DEBF0FBECDBFDF91CF911F910F91FF9048
:1023F000EF90DF90CF900C94B41826960FB6F89417
:10240000DEBF0FBECDBFDF91CF911F910F91FF9027
:10241000EF90DF90CF9008950E94A1170E94761749
:102420000C94BB170E9491170C940C120E94071772
:10243000292F22952F7030E02C3031054CF42A30B2
:1024400031056CF4225031092230310588F407C07F
:102450002C30310549F02F30310531F009C0803E74
:1024600048F0803F29F406C093FB882780F908953F
:1024700080E0089581E00895CF93DF9300D000D0ED
:102480001F92CDB7DEB70F900F900F900F900F9067
:10249000DF91CF910895CF93DF9300D000D000D08B
:1024A000CDB7DEB726960FB6F894DEBF0FBECDBF10
:1024B000DF91CF9108951F93CF93DF93C0913601A1
:1024C00016E080913701C81799F0D0E01C9FF00109
:1024D0001D9FF00D1124E85CFE4F40815181628107
:1024E0007381848195810E944B122196C770E9CF38
:1024F000DF91CF911F91089540916801509169013A
:1025000060916A0170916B0180916C0190916D01F5
:102510000C944B1280916D0182958F7009F054C01C
:1025200080916A01882309F44FC080913601A091FF
:102530003701609168017091690140916B01509180
:102540006C01B6E08A1709F43FC090E041155105CF
:10255000C1F17F3F11F46F3FA1F1B89FF001B99F26
:10256000F00D1124E85CFE4F218172132AC02081F6
:10257000621327C02281211124C0238134812417B2
:10258000350710F421503109241B350B283C310547
:10259000C0F420916D012F70206120936D0126E021
:1025A000289FF001299FF00D1124E35CFE4F8081EC
:1025B0008F708061808388E691E00E945E0F0C94AA
:1025C0005B1201968770BECF0895CF92DF92EF9293
:1025D000FF920F931F93CF93DF93CDB7DEB7629730
:1025E0000FB6F894DEBF0FBECDBF8C0185E0F801B9
:1025F000DE011D9601900D928A95E1F7D8014C916C
:1026000011965C91119712966C9112971396CD903A
:10261000DC901497309168017091690180916B0191
:1026200090916C01009709F46BC17F3F19F43F3F13
:1026300009F466C1E0906A01EE2009F4C0C020915F
:102640006D01C816D90628F0F601E81BF90BCF0179
:1026500004C0809590958C0D9D1DFF24F394883CBB
:10266000910578F0F12C207F09F0C6C07C2DD98A25
:10267000C88A89890E943C1288E691E00E945E0F18
:10268000B1C0822F807F09F046C0751314C0341387
:1026900012C0611110C02F70206120936D010E9443
:1026A0007C1288E691E00E945E0F80916D01D80156
:1026B00015968C932EC0CD2819F15F3F11F44F3F32
:1026C000F9F0F62E61111CC080913601209137017E
:1026D00036E0821709F45AC090E0389FF001399F24
:1026E000F00D1124E85CFE4F7181571306C0708114
:1026F000471303C07281711103C001968770E9CF3F
:10270000F62E662309F418C180916D0181608093D3
:102710006D01F12C11C1751308C0341306C061118D
:1027200004C080916D01D801C3C04D875E878D853F
:102730009E856A8B0E9416126A898823E1F16623BE
:10274000D1F120916D01822F82958F7090E00297D8
:1027500074F0809168019091690198878F83198640
:10276000DB86CA862C87CE0107960E945E0F86E024
:10277000F801A8E6B1E001900D928A95E1F70E9478
:102780008A120E947C12FF24F394D6C04D875E8784
:102790008D859E850E940717292F22952F7030E086
:1027A000223031050CF0BCC09F7009F0B6C0805ECD
:1027B000883008F4C1C0C8010E945E0FE4CFC8167B
:1027C000D90608F453C0F601E81BF90BCF01883C89
:1027D000910508F450C0F12C7C2DD98AC88A8989CA
:1027E0000E943C12E8E6F1E086E0DF011D928A9546
:1027F000E9F70E947C12A0C0751314C0341312C0F4
:10280000611110C080916D01F8018583C8010E949B
:102810005E0F86E0E8E6F1E0DF011D928A95E9F7B8
:10282000FE2C8AC04D875E878D859E856A8B0E94AF
:1028300016126A89882309F4BECF662309F4BBCF38
:1028400020916D01822F82958F7090E002970CF499
:102850008ECF80916801909169019A8389831B8250
:10286000DD82CC822E83CE0101967FCF809590951C
:102870008C0D9D1DACCFF62E662309F49CCF7513ED
:102880002EC034132CC020916D0120FD1FC0822F5B
:1028900082958F70D9F0D80115962C9315978F30AB
:1028A00049F08F5F982F9295907F822F8F70892BA0
:1028B00015968C93C8010E945E0F86E0F801A8E689
:1028C000B1E001900D928A95E1F793CF86E0F8018F
:1028D000A8E6B1E001900D928A95E1F72DC04D87F1
:1028E0005E878D859E850E941612811140CF809152
:1028F0006D01816080936D01C8010E945E0F1CC054
:10290000662309F458CF4D875E878D859E850E948A
:102910001612882309F44FCF2ACF811148CF0CC05B
:10292000243031050CF047CF9F7009F440CFF801F7
:102930009581907F09F03BCF8F2D62960FB6F8946A
:10294000DEBF0FBECDBFDF91CF911F910F91FF90E2
:10295000EF90DF90CF9008951F93CF93DF93CDB783
:10296000DEB72C970FB6F894DEBF0FBECDBF4F83F6
:10297000588769877A878B879C87CE0107960E9444
:10298000E512882369F08F8198852A853B85232B62
:10299000F1F19F3F09F063C08F3F09F060C037C07D
:1029A00086E0FE013796DE01119601900D928A9520
:1029B000E1F76F817885EA85FB85309741F17F3FAC
:1029C00011F46F3F21F12091370130E0C9010196E8
:1029D000877099274091360150E08417950709F4D4
:1029E00047C069837A83FD83EC8396E0929FD00190
:1029F000939FB00D1124A85CBE4FFE01319601904B
:102A00000D929A95E1F7809337010E945B1216E0D0
:102A100080913601909137018917C1F1189FC0014B
:102A20001124885C9E4F0E94E512882379F1E09181
:102A300036011E9FF0011124E85CFE4F4081518158
:102A400062817381848195810E944B12809136014D
:102A500090E001968770992780933601D9CF4F81F6
:102A6000588569857A858B859C850E944B12CFCFCE
:102A70000E9412121092370110923601E8E6F1E03E
:102A800086E0DF011D928A95E9F7C1CF2C960FB63B
:102A9000F894DEBF0FBECDBFDF91CF911F91089597
:102AA000EF92FF920F931F93CF93DF938C01892BAB
:102AB00009F46CC0F12CEE24E394E8012196F801AE
:102AC0008491843740F4843008F051C0813081F023
:102AD000823019F15BC0853709F444C0A8F19CE746
:102AE000980F903708F052C08F770E94280F41C08E
:102AF0000E5F1F4FFE01C49180E28C0F883048F4B6
:102B0000C7708E2D01C0880FCA95EAF70E949417EE
:102B100014C08C2F0E94890E2DC00E5F1F4FFE0126
:102B2000C49180E28C0F883058F4C7708E2D01C09C
:102B3000880FCA95EAF70E949A170E94BB171AC01D
:102B40008C2F0E94280F16C00E5F1F4FFE01C491EC
:102B5000CC2381F08FE99FE00197F1F700C00000DE
:102B6000C150F6CF0E5F1F4FFE01F49003C00E94CC
:102B7000890E8E018F2D882309F49FCFEFE9FFE0A6
:102B80003197F1F700C000008150F5CFDF91CF9170
:102B90001F910F91FF90EF90089508956093720137
:102BA0007093730180937401909375010C940C12CF
:102BB0000F931F9300917201109173012091740182
:102BC00030917501DC01CB01802B912BA22BB32B13
:102BD0008093720190937301A0937401B093750177
:102BE0001F910F910C940C120F931F93009172017F
:102BF000109173012091740130917501DC01CB01BA
:102C000080239123A223B3238093720190937301B5
:102C1000A0937401B09375011F910F910C940C1245
:102C20000F931F9300917201109173012091740111
:102C300030917501DC01CB0180279127A227B327B2
:102C40008093720190937301A0937401B093750106
:102C50001F910F910C940C1210926E0110926F0143
:102C600010927001109271010C940C1241E050E02E
:102C700060E070E004C0440F551F661F771F8A95FF
:102C8000D2F740936E0150936F016093700170937F
:102C900071010C940C1241E050E060E070E004C05F
:102CA000440F551F661F771F8A95D2F780916E01DA
:102CB00090916F01A0917001B0917101482B592B37
:102CC0006A2B7B2B40936E0150936F0160937001D0
:102CD000709371010C940C1241E050E060E070E0E0
:102CE00004C0440F551F661F771F8A95D2F7409581
:102CF00050956095709580916E0190916F01A091B3
:102D00007001B0917101482359236A237B234093BA
:102D10006E0150936F0160937001709371010C9478
:102D20000C1241E050E060E070E004C0440F551F19
:102D3000661F771F8A95D2F780916E0190916F017F
:102D4000A0917001B0917101482759276A277B270C
:102D500040936E0150936F01609370017093710105
:102D60000C940C120F931F9300916E0110916F0140
:102D70002091700130917101DC01CB01802B912BEE
:102D8000A22BB32B80936E0190936F01A0937001DF
:102D9000B09371011F910F910C940C120F931F931C
:102DA00000916E0110916F012091700130917101BD
:102DB000DC01CB0180239123A223B32380936E01F6
:102DC00090936F01A0937001B09371011F910F91C7
:102DD0000C940C120F931F9300916E0110916F01D0
:102DE0002091700130917101DC01CB018027912786
:102DF000A227B32780936E0190936F01A093700177
:102E0000B09371011F910F910C940C120895CF9201
:102E1000DF92EF92FF920F931F93CF93DF938C017A
:102E2000C0907201D0907301E0907401F090750130
:102E300040916E0150916F0160917001709171012C
:102E4000C42AD52AE62AF72ACFE1D0E0D701C60165
:102E50000C2E04C0B695A795979587950A94D2F73E
:102E600080FF07C0B8018C2F0E94E11781309105C7
:102E700031F4219758F7B80180E00E94E117DF9103
:102E8000CF911F910F91FF90EF90DF90CF90089519
:102E900020910B0130910C01F90132969FEF40E037
:102EA0005191581789F09F3F19F4511101C0942F87
:102EB0004F5F4630A9F79F3F39F0F901E90FF11D47
:102EC00097FDFA9582830895089520910B01309122
:102ED0000C01F9013296285F3F4F9081981301C091
:102EE00010823196E217F307C1F7089581E090E070
:102EF000E0910B01F0910C01E80FF91F108201968F
:102F000088309105A9F7089590918001892B8093CD
:102F1000800108958095909180018923809380019C
:102F2000089510928001089590917F01892B8093DC
:102F30007F010895809590917F01892380937F017F
:102F4000089510927F01089580937601089510925C
:102F50007601089580910B0190910C01FC0131964E
:102F60009C01285F3F4F80E0919191118F5FE217A4
:102F7000F307D1F70895E0910B01F0910C018091D6
:102F800080018083E0910B01F0910C019081809190
:102F90007F01892B808380917601882361F0E09105
:102FA0000B01F0910C019081892B80830E94AA175C
:102FB00081111092760180910B0190910C010C947B
:102FC000170DCF93DF930E94F30490E4980F903293
:102FD00018F40E940205C2C08D3B50F4883A10F5E7
:102FE000853AB8F4843090F4813009F46FC00BC096
:102FF000883E30F4803E50F48F3B09F459C003C042
:10300000803F08F051C0C0E0D0E0A7C0C82FD0E09A
:10301000A4C0853A09F45DC0863A09F45DC0C3E8EE
:10302000D0E49BC0883A09F45AC0893A09F45AC0DE
:103030008A3A09F45AC08B3A09F45AC08C3A09F416
:103040005AC08B3B09F45AC08C3B09F45AC08D3AE4
:1030500009F45AC0803B09F45AC08E3A09F45AC0A8
:103060008F3A09F45AC0813B09F45AC0823B09F4F3
:103070005AC0833B09F45AC0843B09F45AC0853BCB
:1030800009F45AC0863B09F45AC0873B09F45AC078
:10309000883B09F45AC0893B09F45AC08A3B09F4B9
:1030A0005AC0C0E0D4E459C0C82FD0E0D06555C0A4
:1030B0000E9412122FEF80E792E021508040904052
:1030C000E1F700C000000E945C1947C0C1E0D0E0F9
:1030D00044C0C1E8D0E441C0C2E8D0E43EC0C2EE82
:1030E000D4E43BC0C9EED4E438C0CAEED4E435C061
:1030F000C5EBD4E432C0C6EBD4E42FC0C3EBD4E4B8
:103100002CC0C4EBD4E429C0C7EBD4E426C0CCEC7B
:10311000D4E423C0CDECD4E420C0C3E8D5E41DC082
:10312000CAE8D5E41AC0C2E9D5E417C0C4E9D5E4B9
:1031300014C0C1E2D6E411C0C3E2D6E40EC0C4E2BA
:10314000D6E40BC0C5E2D6E408C0C6E2D6E405C0AA
:10315000C7E2D6E402C0CAE2D6E4CE01DF91CF9145
:10316000089580E090E00895089590930F01809372
:103170000E0108958091CC02843021F110928201D9
:1031800020E488E190E00FB6F894A8958093600061
:103190000FBE2093600083B7817F846083BF83B7B5
:1031A000816083BF7894889583B78E7F83BF0FB685
:1031B000F894A895809160008861809360001092D7
:1031C00060000FBE0895CF930E94F0040E94F003A8
:1031D0000E94F104C0E08C2F0E946E04811104C093
:1031E000CF5FC231C1F701C081E0CF9108950C9447
:1031F00012121F920F920FB60F9211248F939F936A
:10320000AF93BF9380918201811113C0809183019C
:1032100090918401A0918501B09186014196A11DF4
:10322000B11D8093830190938401A0938501B09395
:103230008601BF91AF919F918F910F900FBE0F901C
:103240001F90189582E084BD93E095BD9AEF97BDDD
:1032500080936E0008952FB7F89480918301909128
:103260008401A0918501B09186012FBF08951F921E
:103270000F920FB60F9211248F939F93AF93BF932A
:103280008091830190918401A0918501B091860184
:103290000196A11DB11D8093830190938401A09399
:1032A0008501B0938601BF91AF919F918F910F904F
:1032B0000FBE0F901F9018950E944B0AF8942FEFA5
:1032C00087EA91E6215080409040E1F700C000007D
:1032D00087E090EBDC018093D5029093D602A09317
:1032E000D702B093D8029CE088E10FB6F894A89575
:1032F000809360000FBE90936000FFCFCF93C82FE4
:103300001F928F9387EA92E09F938F930E94870387
:1033100081E090E0A0E0B0E0BC01CD0104C0660F08
:10332000771F881F991FCA95D2F70E94CE150F905C
:103330000F900F900F90CF910C941212CF93873271
:1033400088F58E3108F011C18E3009F487C0D8F4A9
:10335000873009F460C08B3009F44FC0863009F023
:1033600008C180918101817F8E7F809381018CEAE9
:1033700092E00E94EE028AE295E00E94EE0281E075
:103380008093870146C0863109F4B0C020F48031B3
:1033900009F47AC0EEC0893109F491C08B3109F487
:1033A00049C0E7C0883349F150F4893209F4DBC0E1
:1033B000853309F4D8C0873209F0DBC0D4C0833428
:1033C00009F4D1C028F48A3308F4D3C08953CEC09D
:1033D000883409F0CEC00E94121289E195E00E9463
:1033E000EE022FEF83ED90E3215080409040E1F713
:1033F00000C000000E945C190CC087EC92E041C044
:1034000080E095E00E94EE028091810181608093CE
:103410008101C1E0B3C080918101C82FC17080FFDC
:10342000EFCF8CE095E00E94EE0280918101817FD8
:103430008E7F3FC09091810191FBCC27C0F981E044
:10344000C827892FC0FB81F980938101CC2319F013
:1034500083EF94E029C085EE94E013C09091810140
:1034600092FBCC27C0F981E0C827892FC0FB82F9E5
:1034700080938101CC2319F086ED94E015C086EC91
:1034800094E00E94EE02C5CF9091810193FBCC277E
:10349000C0F981E0C827892FC0FB83F9809381019F
:1034A000CC2351F08AEB94E00E94EE0280918101DE
:1034B00081608093810162C08DEA94E0E2CF8EE961
:1034C00094E00E94EE028EE794E00E94EE028FE309
:1034D00094E00E94EE0282E194E00E94EE028EEE01
:1034E00093E00E94EE0282EC93E0CBCF84EB93E07A
:1034F0000E94EE020E940B0D1F928F938AE993E0C7
:103500009F938F930E94870380910A011F928F934C
:1035100083E893E09F938F930E94870380911C011F
:103520001F928F9380E793E09F938F930E9487036E
:103530008091830190918401A0918501B0918601D1
:10354000BF93AF939F938F938CE593E09F938F935B
:103550000E9487038DB79EB742960FB6F8949EBF20
:103560000FBE8DBF56CF80E001C08D510E947E19E5
:1035700050CF8AE593E00E94EE02C0E08C2FCF91FD
:10358000089580E0089580E00895CF93C82F80913A
:103590008701882319F0813049F03EC0E0910B018A
:1035A000F0910C0180818232C9F507C0E0910B01D6
:1035B000F0910C018081823261F48C2F0E94C11A3B
:1035C000811104C08C2F0E949E1924C081E090E0DC
:1035D00021C08C2F0E94C31A81111BC0C43189F0F5
:1035E00018F4CB3029F010C0C93259F0C83361F457
:1035F0008CEA92E00E94EE0283EA92E00E94EE02E0
:1036000008C0109287010CC081EA92E00E94EE028D
:1036100007C081E0817006C01092870180E002C07F
:1036200080E0F8CFCF910895991B79E004C0991FED
:10363000961708F0961B881F7A95C9F7809508950C
:10364000EE0FFF1F0024001C0BBE0790F691E02D2B
:063650000994F894FFCF7D
:0E365600D405A306D7056F063B0601770100D9
:00000001FF
