:100000000C9490020C94D7020C94D7020C94D70253
:100010000C94D7020C94D7020C94D7020C94D702FC
:100020000C94D7020C94D7020C94D7020C947D1D2B
:100030000C942D1E0C9488140C94D7020C94D702A7
:100040000C94D7020C94D7020C94D7020C94F014A1
:100050000C94D7020C94D7020C94D7020C94D702BC
:100060000C94D7020C94D7020C94D7020C94D702AC
:100070000C94D70229003270307031705300380070
:1000800025026700240025002600560021002200DA
:10009000230057001E001F002000580027002700E3
:1000A0004C005800010001000100010001000100A6
:1000B0000100010001000100010001000100010038
:1000C0000100010001000100010001000100010028
:1000D0000100010001000100010001000100010018
:1000E0000100010001000100010001000100010008
:100370000100010012036B006500790062006F004C
:100380006100720064000000160371006D006B00D4
:100390006200750069006C00640065007200000076
:1003A0000403090409026D00040100A0FA09040015
:1003B0000001030101000921110100012240000791
:1003C00005810308000A0904010001030102000974
:1003D0002111010001224D000705820308000A09CE
:1003E000040200010300000009211101000122366E
:1003F000000705830308000A090403000103000045
:1004000000092111010001223900070584032000A1
:10041000011201100100000008EDFE606001000102
:1004200002000105010906A101050719E029E715E8
:100430000025019508750181020508190129059516
:1004400005750191029501750391010507190029B0
:10045000F71500250195F875018102C00501098095
:10046000A10185021601002603001A81002A8300DB
:10047000751095018100C0050C0901A101850316C5
:100480000100269C021A01002A9C02751095018128
:1004900000C005010902A1010901A1000509190116
:1004A0002905150025019505750181029501750342
:1004B00081010501093009311581257F95027508F3
:1004C000810609381581257F950175088106050C7F
:1004D0000A38021581257F950175088106C0C0057F
:1004E000010906A101050719E029E7150025019575
:1004F0000875018102950175088101050819012916
:10050000059505750191029501750391010507197E
:100510000029FF150026FF00950675088100C00020
:1005200011241FBECFEFD4E0DEBFCDBF04B603FE63
:1005300027C08091160290911702A0911802B091E5
:1005400019028730904BA740B04BD1F4109216029D
:1005500010921702109218021092190214BE84B75A
:10056000877F84BF0FB6F894A8958091600088615A
:1005700080936000109260000FBEE0E0F8E3099500
:1005800011E0A0E0B1E0E4E1F3E402C005900D92D7
:10059000A233B107D9F722E0A2E3B1E001C01D9276
:1005A000A631B207E1F70E94EA1A0C9488210C9454
:1005B000000090E080E008950895089581E0089596
:1005C00080FF03C03E9A469808953E98FCCF81E094
:1005D00008950C94DE020E94DF0C2FEF84E39CE070
:1005E000215080409040E1F700C000000C941515A8
:1005F000FF920F931F93CF93DF938C01FC01C08177
:10060000D1818091600181113FC082818823B9F13D
:10061000CE010E945612F82E682FCE010E94F611CC
:10062000BE018F2D0E947D04EC01B8010E94E902F9
:10063000882309F44AC0B801CE010E94B606882377
:1006400009F443C0C531F0E7DF0718F5C23080E791
:10065000D80708F04BC0C115E0E7DE0789F1C130CB
:10066000D047D1F181E08093340180933501C801F6
:10067000DF91CF911F910F91FF900C94E702CE0173
:100680000E942A12F82ECCCFCE010E945612BE0133
:10069000C9CFCC3380E7D80709F4ACC0CD33D047FD
:1006A00009F7F8018281882309F4CBC01092350143
:1006B0000E94BA14909333018093320180E2A7C064
:1006C000F801828181110E94EB0280E0DF91CF91DD
:1006D0001F910F91FF900895F80182818823A9F35B
:1006E0008091D50181608093D501EFCFF80182819F
:1006F000882309F4BCCF0E940C14811102C00E940F
:10070000ED130E94291490E0909307028093060253
:10071000FE01E350F047809106028160E231F1056D
:10072000C8F4EB56FC4F0C943821A703B303B7036E
:10073000BB03BF03C303C703CB03CF03D303D70359
:10074000DB03DF03E303E703EB03EF03F303809132
:100750000602826080930602809106020E942D1498
:100760000E94DF0CB2CF809106028460F3CF8091AB
:1007700006028860EFCF809106028061EBCF809106
:1007800006028062E7CF809106028064E3CF809109
:1007900006028068DFCF809106028460EACF8091F4
:1007A00006028E7FD7CF809106028D7FD3CF8091B6
:1007B00006028B7FCFCF80910602877FCBCF8091BF
:1007C00006028F7EC7CF809106028F7DC3CF8091B6
:1007D00006028F7BBFCF809106028F77BBCF8091BF
:1007E00006028B7FEACF90910602892F97FB87F94B
:1007F0008058B0CFF8018281882361F010923401D3
:100800000E94BA14909333018093320182E00E94D7
:10081000490A5BCF8091340181110FC08091320170
:10082000909133010E94C614883C910530F486E211
:100830000E941E0986E20E94FA0982E00E94500A84
:1008400044CF8091350181110FC080913201909188
:1008500033010E94C614883C910530F487E20E945F
:100860001E0987E20E94FA0980E2E8CF0C9407078C
:10087000279A2F988FEF9FEF9093870080938600A1
:100880008AE08093800089E1809381000C94B01805
:100890000E9438040C940507282F2F98809180001F
:1008A000211108C0877F8093800010928D001092E4
:1008B0008C000895886080938000233039F48FEF96
:1008C0009FEF90938D0080938C00089583E090E0DB
:1008D000821B9109880F991F2FEF3FEF02C03695B9
:1008E00027958A95E2F730938D0020938C00089528
:1008F0000C94E0020C9478040895E62F272F90E0E2
:1009000066E070E00E941321820F911D880F991FED
:10091000880F991FE80FF92FF11DEE0FFF1FEC58FC
:10092000FF4F859194910895FC01EE0FFF1FEC5845
:10093000FC4F8591949108950E947D040E94350694
:10094000811520E5920708F040C0811530E4930737
:1009500008F0FCC0883E910518F5803E910508F02E
:1009600083C1883A910580F4853A910508F089C0E1
:100970008130910509F478C120F08430910508F0A8
:1009800073C190E080E008958D3B910508F484C028
:10099000803C9105B0F3805C91090E949404089515
:1009A000811540E2940750F4811521E0920708F088
:1009B0005BC1803F910528F390650895811530E370
:1009C000930708F0C0C09F70E8CF811545E59407F4
:1009D00070F5811524E5920708F0EBC0811532E52A
:1009E000930750F4811541E5940708F4B2C0982F9D
:1009F0008827816F906A0895282F26952695AC0147
:100A0000437055278115934508F0C2C081E090E0FE
:100A100002C0880F991F4A95E2F730E055E0220F97
:100A2000331F5A95E1F7822B932B9C6808958033EE
:100A300040E7940798F4803220E7920708F0C3C09B
:100A4000811536E5930708F4B9C09C0130569F70B4
:100A50002115304108F095CF90620895813320E749
:100A6000920709F4B7C008F4B2C0823340E7940794
:100A700009F4B3C08333904709F083CF80E093ED4E
:100A80000895853A910509F4ABC0863A910509F0BD
:100A9000AAC082E890E40895883A910509F4A6C0B6
:100AA000893A910509F4A5C08A3A910509F4A4C0D0
:100AB0008B3A910509F4A3C08C3A910509F4A2C0C0
:100AC0008B3B910509F4A1C08C3B910509F4A0C0B2
:100AD0008D3A910509F49FC0803B910509F49EC0B1
:100AE0008E3A910509F49DC08F3A910509F49CC096
:100AF000813B910509F49BC0823B910509F49AC0A2
:100B0000833B910509F499C0843B910509F498C091
:100B1000853B910509F497C0863B910509F496C081
:100B2000873B910509F495C0883B910509F494C071
:100B3000893B910509F493C08A3B910509F492C061
:100B400080E094E408959927906C08959F70906ACE
:100B500008959C0174E0369527957A95E1F7922FD8
:100B60009370482F437021E030E002C0220F331F02
:100B70004A95E2F73C68392B86958695837090E01C
:100B8000E5E0880F991FEA95E1F7822B932B0895F2
:100B900081E090E002C0880F991F4A95E2F730E0AB
:100BA00045E0220F331F4A95E1F7822B932B9A6879
:100BB0000895982F8827846F906A0895982F882722
:100BC00088279F7149CF80529047946D089580E0A7
:100BD00091ED089580E090ED089580E092ED089504
:100BE00081E890E4089583E890E4089582EE94E427
:100BF000089589EE94E408958AEE94E4089585EBCF
:100C000094E4089586EB94E4089583EB94E40895C6
:100C100084EB94E4089587EB94E408958CEC94E4D9
:100C200008958DEC94E4089583E895E408958AE8A6
:100C300095E4089582E995E4089584E995E408959A
:100C400081E296E4089583E296E4089584E296E4CE
:100C5000089585E296E4089586E296E4089587E291
:100C600096E408958AE296E408958238910549F160
:100C7000B0F48133910509F45CC048F489329105E0
:100C800009F452C08A32910509F458C00895853399
:100C9000910509F444C08933910599F00895833E84
:100CA000910531F138F4803E910591F0823E910535
:100CB000B1F00895863E910511F1873E910541F10D
:100CC0000895209106022370C9F080EE90E0089507
:100CD0002091060220FF12C089E390E00895209140
:100CE000060222FF0BC024FF2EC090E080E0089592
:100CF0002091060222FD2AC024FDF7CF08952091FD
:100D0000060223FFFBCF24FDF0CF87EE90E008958D
:100D10002091060223FFF0CF86EE90E00895209107
:100D2000060225FD16C008952091060225FD14C077
:100D300008952091060226FD12C008952091060212
:100D400026FD10C0089583EE90E0089582EE90E0B5
:100D5000089589E290E0089585E390E008958AE29D
:100D600090E0089581E390E0C9CF08950F931F9319
:100D7000CF938C01FB018281811106C0C1E08C2FD1
:100D8000CF911F910F910895C0914301C11125C0CA
:100D90000531104799F70E94B50681E08093430121
:100DA0000E94BA149093420180934101109236013F
:100DB000109238011092370110923A0110923901C5
:100DC00010923C0110923B0110923E0110923D01A5
:100DD0001092400110923F01D2CF80914101909139
:100DE00042010E94C614883C910540F6809136016C
:100DF000E82FF0E0EE0FFF1FE95CFE4F1183008348
:100E00008F5F80933601C0E0BACF0C94DC020C9463
:100E1000DD02A7E1B1E061E070E08D91E82FE2959D
:100E2000EF70F0E041A18F709B0101C0220F8A9505
:100E3000EAF7922F9095942391A382A1822B82A30B
:100E400081E0AD31B80749F7A3E1B1E061E070E0BE
:100E50008D91E82FE295EF70F0E041A18F709B013A
:100E600001C0220F8A95EAF7922F9095942391A3BF
:100E700082A1822B82A381E0A731B80749F7EAE477
:100E8000F1E0A4E4B1E080E591E011921D928E17AB
:100E90009F07D9F70C9448046F927F928F929F928C
:100EA000AF92BF92CF92DF92EF92FF920F931F9378
:100EB000CF93DF9304E411E097E1E92E91E0F92E5E
:100EC000E801CC24C394D12CBB24B394A88018820D
:100ED000D7018D917D01E82FE295EF70F0E091A1AF
:100EE0008F70A60101C0440F8A95EAF7892F842BE1
:100EF00081A382A1842E8094882182A3B0EABA952E
:100F0000F1F783E1682E81E0782E90E080E0D30154
:100F10003D913D01632F62956F7070E0DB0190960B
:100F20002C9198803F70B60101C0660F3A95EAF7A0
:100F3000622320E031F42C2D082E01C0220F0A94E8
:100F4000EAF72929288301968430910501F781A1C8
:100F5000882181A382A1482B42A38881A81641F051
:100F6000B09250010E94BA149093520180935101A3
:100F70002196BDE1EB16B1E0FB0609F0A7CF809109
:100F800050018823A9F080915101909152010E9453
:100F9000C614069768F0EAE4F1E08AE491E0D8012B
:100FA0002D918D0121938A179B07C9F7109250014B
:100FB0000E94360481E0DF91CF911F910F91FF9045
:100FC000EF90DF90CF90BF90AF909F908F907F90E9
:100FD0006F900895E82FF0E0E65BFE4F8081089562
:100FE000089590935801809357010895E091570117
:100FF000F0915801309721F00190F081E02D099493
:1010000080E00895E0915701F0915801309721F068
:101010000280F381E02D09940895E0915701F09149
:101020005801309721F00480F581E02D099408954E
:1010300020915501309156012817390771F090938E
:10104000560180935501E0915701F0915801309776
:1010500021F00680F781E02D099408952091530135
:10106000309154012817390771F0909354018093FF
:101070005301E0915701F0915801309721F000841D
:10108000F185E02D0994089508950C9444080E9478
:10109000B1140E9409070E947A150C94B018BF92EF
:1010A000CF92DF92EF92FF920F931F93CF93DF9334
:1010B000CDB7DEB72A970FB6F894DEBF0FBECDBF0F
:1010C0000E944C078AE5C82E81E0D82E10E000E08F
:1010D000B02E802F0E94EA07E82EF601F1906F01F2
:1010E000F81609F45AC08091D50181FD0E94F007DD
:1010F00090E080E0FE242F2D30E0482FB901082E2B
:1011000002C0759567950A94E2F760FF41C08E832F
:10111000BF8281E090E06C0102C0CC0CDD1C4A95DE
:10112000E2F72E2D30E02C213D21232B09F480E025
:1011300088870E94BA148160782F9A8789874E81A8
:101140005F8168858A850E94F408F801E65AFE4F9F
:1011500080818C2580830E9401180E94F60790915F
:101160005901891789F10E94F607809359012A963F
:101170000FB6F894DEBF0FBECDBFDF91CF911F91A8
:101180000F91FF90EF90DF90CF90BF900C947A0476
:1011900001968430910509F0B0CF0F5F1F4F0630E4
:1011A000110509F095CF8FEF89838A831B820E94F6
:1011B000BA148160782F9D838C8349815A816B8119
:1011C0008D810E94F408C7CF2A960FB6F894DEBF2F
:1011D0000FBECDBFDF91CF911F910F91FF90EF9088
:1011E000DF90CF90BF900895CF93DF93CDB7DEB758
:1011F0002B970FB6F894DEBF0FBECDBF4F83588735
:1012000069877A878B871E821D8285E0FE0137966B
:10121000DE01119601900D928A95E1F749815A817C
:101220006B817C818D819E812B960FB6F894DEBFF9
:101230000FBECDBFDF91CF910C94980F882309F496
:10124000D8C0823871F40E94F60781FDD2C089E3CC
:101250000E94F6120E94BE1389E30E9433130C947D
:10126000BE13833859F40E94F60780FDC2C083E59F
:101270000E94F6120E94BE1383E5EFCF843859F422
:101280000E94F60782FDB5C087E40E94F6120E9414
:10129000BE1387E4E2CF9CEF980F913A18F40E94B6
:1012A000F612DDCF90E2980F983050F4877091E0FD
:1012B00001C0990F8A95EAF7892F0E947513CFCF45
:1012C0009BE5980F933070F4853A31F0863A39F007
:1012D00083E890E00C94180881E890E0FBCF82E866
:1012E00090E0F8CF98E5980F953108F082C0883AE1
:1012F00009F440C0893A09F440C08A3A09F440C070
:101300008B3A09F440C08C3A09F440C08B3B09F495
:1013100040C08C3B09F440C08D3A09F440C0803B8A
:1013200009F440C08E3A09F440C08F3A09F440C035
:10133000813B09F440C0823B09F440C0833B09F47F
:1013400040C0843B09F440C0853B09F440C0863B63
:1013500009F440C0873B09F440C0883B09F440C011
:10136000893B09F440C08A3B09F440C090E080E02A
:101370000C942E0882EE90E0FBCF89EE90E0F8CF3F
:101380008AEE90E0F5CF85EB90E0F2CF86EB90E02F
:10139000EFCF83EB90E0ECCF84EB90E0E9CF87EBED
:1013A00090E0E6CF8CEC90E0E3CF8DEC90E0E0CFE6
:1013B00083E891E0DDCF8AE891E0DACF82E991E03D
:1013C000D7CF84E991E0D4CF81E292E0D1CF83E21C
:1013D00092E0CECF84E292E0CBCF85E292E0C8CF1C
:1013E00086E292E0C5CF87E292E0C2CF8AE292E045
:1013F000BFCF0895882309F44BC0823871F40E944E
:10140000F60781FF45C089E30E94F6120E94BE13D1
:1014100089E30E9433130C94BE13833859F40E945D
:10142000F60780FF35C083E50E94F6120E94BE13C6
:1014300083E5EFCF843859F40E94F60782FF28C075
:1014400087E40E94F6120E94BE1387E4E2CF9CEF6D
:10145000980F913AF0F290E2980F983050F487701C
:1014600091E001C0990F8A95EAF7892F0E947B13BA
:10147000D2CF9BE5980F933020F490E080E00C945D
:101480001808885A853120F490E080E00C942E08EA
:101490000895882321F00E9475130C94BE130895BB
:1014A000882321F00E947B130C94BE1308958F9221
:1014B0009F92AF92BF92DF92EF92FF920F931F9392
:1014C000CF93DF937C01D62FC72FFC0105810295B6
:1014D0000F70128111110E9494130E94EF12D82EE6
:1014E000882371F0112321F180E28D0F883000F103
:1014F00082E00E94D9120E94EF1291E0D82ED926E4
:10150000EC2FE295EF70F0E0E857F54F0C9438219E
:101510009A0A9A0AEA0AEA0A2C0B480BC70AC70A6F
:10152000530BC70AEB0BEB0B5E0C670CC70A870C5F
:10153000D12CE6CF0C2F0F70C07F11F00295007FE9
:101540001123A9F0002359F080E28D0F883010F0AC
:10155000D11109C0802F0E9475130E94BE138D2FD8
:101560000E941E0914C0802F0E948613F6CF8D2F73
:101570000E94FA09002359F080E28D0F883010F0A4
:10158000D11124C0802F0E947B130E94BE13DD2046
:1015900009F4C4C10E94CC1280FDC0C1F7011282BF
:1015A0000E94C6120E943A11C7010E949A0C0E9422
:1015B000C612DF91CF911F910F91FF90EF90DF90B6
:1015C000BF90AF909F908F900C945B11802F0E94E2
:1015D0008C13DBCFFC2FFF70BF2EC07FC03219F001
:1015E000B29480EFB822DD2369F0D13029F11123C4
:1015F00069F1002359F0F701858180FFB0CF8F702A
:10160000858304C0112361F0011104C08B2D0E9459
:10161000490ABDCF8B2D0130D1F70E94A813B7CF57
:10162000011106C00E94AB138B2D0E94500AAFCF50
:10163000013009F4ACCFF6CF112321F0063008F0C9
:10164000A6CFE4CF053008F0A2CFEECF002361F3A0
:101650008D2F0E94FA099BCF8C2F869586958370DB
:1016600069F0813009F093CF8D2F9C2F9370111169
:1016700002C090E080E00E942E0889CF8D2F9C2F21
:101680009370111102C090E080E00E9418087FCF93
:101690008D2F112329F00E940A170E94F61777CF89
:1016A0000E947217FACF8C2F837009F047C0111176
:1016B0006ECF2D2F229526952770220F220F6D2F8A
:1016C0006F70862E912CB12CA12C022E04C0880C98
:1016D000991CAA1CBB1C0A94D2F760E070E0CB01F5
:1016E000D4FF0FC06FE070E080E090E004C0660FB0
:1016F000771F881F991F2A95D2F76095709580955E
:101700009095C695C695C370C23051F080F4682993
:1017100079298A299B29C13071F00E94E31037CFC3
:10172000682979298A299B290E94FF1030CF0E94BD
:10173000E310C501B4010E94C71029CF869511237B
:1017400011F08C2F8170882309F421CF2D2F229541
:1017500026952770220F220F6D2F6F70862E912CE9
:10176000B12CA12C022E04C0880C991CAA1CBB1CF5
:101770000A94D2F760E070E0CB01D4FF0FC06FE0B5
:1017800070E080E090E004C0660F771F881F991F0B
:101790002A95D2F76095709580959095C695C695D7
:1017A000C370C23051F080F4682979298A299B29B5
:1017B000C13071F00E94BD11EACE682979298A29C9
:1017C0009B290E94D911E3CE0E94BD11C501B4012D
:1017D0000E94A111DCCEE0E2ED0FE53108F062C01D
:1017E000F0E0EB50F44F0C9438210A0C0A0C0A0C70
:1017F0000A0C0A0C0A0C0A0C0A0C0A0C0A0C0A0C39
:101800000A0C0A0C0A0C0A0C0A0C170C250C2C0CDE
:10181000330C3D0CDF708C2F8F71112321F00E944F
:101820003A118D2FF4CE0E945B118D2FFECE112325
:1018300041F0053008F0ABCE8C2F8F710E948011E3
:10184000A6CE063008F0A3CEF7CF8C2F8F711123D0
:1018500039F00E943A119BCE8C2F8F711123C9F35E
:101860000E945B1194CE112329F08C2F8F710E945E
:1018700025118DCE0E941B118ACE112349F0CF7104
:101880008C2F0E943A1163E08C2F0E94D0127FCEE1
:1018900081E00E94D912023008F479CE82E00E94E1
:1018A000D91275CE112329F0011159CE8C2F8F71C9
:1018B000D0CF0111CDCE8C2F8F71D2CF4C2F4F7046
:1018C0006D2FC7010E94D9020E94441060CE1111F1
:1018D0005ECECF70C230A9F040F4CC2379F0C13095
:1018E00009F055CE0E94D91852CEC33069F0C430E9
:1018F00009F04DCE8D2F0E94281949CE0E94C118A3
:1019000046CE0E94F21843CE0E94051940CE4C2FBD
:101910004F706D2FC7010E947C0439CEDF91CF91AB
:101920001F910F91FF90EF90DF90BF90AF909F902D
:101930008F9008950F931F93CF93DF93EC019881BD
:1019400089812B813C81232B39F08F3F19F481E071
:101950009F3F19F080E001C081E080FD17C0CE01FB
:101960000E94F802882391F0688179818A810E941F
:10197000A2128C010E94F5110E94BC10B801CE0188
:10198000DF91CF911F910F910C94570ADF91CF9166
:101990001F910F9108950E9494130E94A5130E9415
:1019A00067130E94BE130E94A4180E94F61790E0CD
:1019B00080E00E94180890E080E00C942E080E94BD
:1019C00083130C94CB0C0E949812E92FE295EF70D0
:1019D000E250EE30E0F4F0E0E051F34F0C943821A7
:1019E000FE0CFE0C070D070D090D070D070D070D69
:1019F000FE0CFE0C0E0D070D070D0E0D803F19F0AD
:101A000020F4803E20F481E00895843FE1F380E0FB
:101A10000895803EC0F3813FD1F7F5CF93FB88272F
:101A200080F90895CF93DF9300D000D01F92CDB7F7
:101A3000DEB70F900F900F900F900F90DF91CF9126
:101A40000895CF93DF9300D000D000D0CDB7DEB79C
:101A500026960FB6F894DEBF0FBECDBFDF91CF91B3
:101A60000895CF93DF93C0916101809162018C133F
:101A700003C0DF91CF910895D0E0CE0166E070E021
:101A80000E941321FC01ED59FE4F4081518162817A
:101A90007381848195810E94210D2196C770E5CFC5
:101AA000409193015091940160919501709196013C
:101AB00080919701909198010C94210DFF920F93C2
:101AC0001F93CF93DF9380919801807FC9F4809119
:101AD00095018823A9F020916101F0906201109195
:101AE000930100919401E0919601F091970141E0FA
:101AF0001F3F09F040E0DF01A095B095F21206C04B
:101B0000DF91CF911F910F91FF90089581E0309761
:101B100021F0842F0F3F09F080E030E080FD3BC0D2
:101B2000C90166E070E00E941321EC01CD59DE4F3F
:101B30008981801330C0888181132DC08A818111F1
:101B40002AC08B819C818E179F0710F18E1B9F0BE3
:101B5000883C910500F5809198018F708061809399
:101B60009801C90166E070E00E941321FC01E85968
:101B7000FE4F90819F709061908383E991E00E9475
:101B80009A0CDF91CF911F910F91FF900C94310D22
:101B90008A0F9B1FDDCF2F5F3F4F2770AFCFAF92D4
:101BA000BF92CF92DF92EF92FF920F931F93CF934A
:101BB000DF93CDB7DEB761970FB6F894DEBF0FBEE7
:101BC000CDBF8C0185E0F801DE011D9601900D92DC
:101BD0008A95E1F7D8014C9111962C9111971296A4
:101BE000EC905091930160919401809196019091B5
:101BF000970131E0009731F06F3F19F431E05F3F1A
:101C000009F030E0B32FB170BB2E30FD83C1F80175
:101C1000C380D480A0909501AA2009F429C1C816D8
:101C2000D906D0F1D601A81BB90BCD01FF24F3943E
:101C3000883C910508F0F12C80919801982F907FB5
:101C4000FF2009F4CBC0911188C0FE2C621329C07B
:101C5000541327C0E11025C08F70806180939801D4
:101C60000E94500D83E991E00E949A0C80919801A6
:101C7000F80185838F2D61960FB6F894DEBF0FBEF5
:101C8000CDBFDF91CF911F910F91FF90EF90DF902B
:101C9000CF90BF90AF900895809590958C0D9D1D2D
:101CA000C5CF81E0CD2831F02F3F19F481E04F3FBF
:101CB00009F080E080FD14C081E08E25F82FF170DE
:101CC000DF2EE09161013091620180FD22C0EE20A3
:101CD00089F280919801816080939801F12CCACF9C
:101CE00080E0ECCFF0E0CF0166E070E00E941321CD
:101CF000DC01AD59BE4F11968C911197281307C086
:101D00008C91481304C012968C918E11E0CF3196BD
:101D1000E770E313E7CF4D872E878D859E850E9460
:101D20009812292F22952F70223058F0243080F4F9
:101D30009F7059F0D80115969C91907F31F4FB2C3F
:101D400099CF9F7011F08823D1F3805E8830B8F36B
:101D5000C8010E949A0CBD2CF2CF621312C054131A
:101D600010C0E1100EC0F8018583C8010E949A0CD2
:101D700086E0F801A3E9B1E001900D928A95E1F7C0
:101D800042C04D872E878D859E850E94E30C882357
:101D900009F4CAC0EE2009F4C7C0809198018032CE
:101DA00070F0209193013091940138872F83198628
:101DB000DB86CA868C87CE0107960E949A0C86E045
:101DC000F801A3E9B1E001900D928A95E1F70E9434
:101DD0005E0D0E94500DFF24F3944CCF911116C05C
:101DE0007C2DD98AC88A522F6E2D89890E94120DA6
:101DF00083E991E00E949A0C86E0E3E9F1E0DF01DB
:101E00001D928A95E9F70E94500D34CF621312C0DB
:101E1000541310C0E1100EC0F8018583C8010E9460
:101E20009A0CE3E9F1E086E0DF011D928A95E9F77B
:101E3000FA2C20CF4D872E878D859E850E94E30C3E
:101E4000882309F471C0EE2009F46EC080919801D6
:101E5000803208F4B4CF20919301309194013A83F9
:101E600029831B82DD82CC828E83CE010196A5CF91
:101E7000C816D90638F1F601E81BF90BCF01F12C91
:101E8000883C910508F03DC0FE2CEE2009F44CC0C2
:101E9000621326C0541324C08091980180FD17C09E
:101EA000982F907FA1F0D80115968C931597903FAD
:101EB00009F45BCF982F907F905F8F70892B1596D8
:101EC0008C9353CF809590958C0D9D1DD8CF86E037
:101ED000F801A3E9B1E001900D928A95E1F7CACE2D
:101EE0004D872E878D859E850E94E30C811167CFDB
:101EF00080919801816080939801C8010E949A0C9A
:101F0000B9CE7C2DD98AC88A522F6E2D89890E941C
:101F1000120D72CFEE2041F04D872E878D859E8564
:101F20000E94E30C81114BCFC8010E949A0C53CF41
:101F3000CF93DF93CDB7DEB72C970FB6F894DEBF03
:101F40000FBECDBF4F83588769877A878B879C8761
:101F5000CE0107960E94CF0D882309F446C09F81C9
:101F600088852A853B85232B39F08F3F19F481E042
:101F70009F3F19F080E001C081E080FD08C04F81E3
:101F8000588569857A858B859C850E94210D809175
:101F9000610190916201891709F46DC090E066E0DB
:101FA00070E00E9413218D599E4F0E94CF0D88230F
:101FB00009F461C08091610190E066E070E00E94E8
:101FC0001321FC01ED59FE4F4081518162817381E3
:101FD000848195810E94210D8091610190E001969C
:101FE0008770992780936101D2CF86E0FE013796F2
:101FF000DE01119601900D928A95E1F79F81888507
:102000002A853B85232B39F08F3F19F481E09F3FD0
:1020100019F080E001C081E080FDB9CF80916201BC
:1020200090E09C012F5F3F4F277033274091610163
:102030004217130699F066E070E00E941321DC015C
:10204000AD59BE4F96E0FE01319601900D929A95E2
:10205000E1F7209362010E94310D99CF0E94DF0CBD
:10206000109262011092610186E0E3E9F1E0DF0184
:102070001D928A95E9F72C960FB6F894DEBF0FBE35
:10208000CDBFDF91CF910895EF92FF920F931F93F1
:10209000CF93DF938C01892B81F0F12CEE24E39414
:1020A000E8012196F8018491843770F4843008F0B7
:1020B0005FC08130B1F08230A1F1DF91CF911F91EB
:1020C0000F91FF90EF900895853709F44CC008F404
:1020D0003DC09CE7980F903780F78F770E94FA09F0
:1020E00049C00E5F1F4FFE01849190E2980F983017
:1020F00060F48770FE2D01C0FF0F8A95EAF78F2FDD
:102100000E9497130E94BE1302C00E941E098F2DC9
:10211000815030F2EFE9FFE03197F1F700C00000A5
:10212000F7CF0E5F1F4FFE01849190E2980F983019
:1021300050F48770FE2D01C0FF0F8A95EAF78F2FAC
:102140000E949D13DFCF0E94FA09E1CF0E5F1F4F5F
:10215000FE01C491C150D8F28FE99FE00197F1F7D9
:1021600000C00000F7CF0E5F1F4FFE01F490CFCFED
:102170000E941E098E01CBCF08956093AC0170932D
:10218000AD018093AE019093AF010C94CB0C0F93F3
:102190001F930091AC011091AD012091AE013091DF
:1021A000AF01DC01CB01802B912BA22BB32B8093B1
:1021B000AC019093AD01A093AE01B093AF011F911C
:1021C0000F910C94CB0C0F931F930091AC011091C5
:1021D000AD012091AE013091AF01DC01CB01802334
:1021E0009123A223B3238093AC019093AD01A093DC
:1021F000AE01B093AF011F910F910C94CB0C0F93D4
:102200001F930091AC011091AD012091AE0130916E
:10221000AF01DC01CB0180279127A227B327809350
:10222000AC019093AD01A093AE01B093AF011F91AB
:102230000F910C94CB0C1092A8011092A90110924E
:10224000AA011092AB010C94CB0C41E050E060E08D
:1022500070E004C0440F551F661F771F8A95D2F7A0
:102260004093A8015093A9016093AA017093AB0118
:102270000C94CB0C41E050E060E070E004C0440FEF
:10228000551F661F771F8A95D2F78091A8019091FC
:10229000A901A091AA01B091AB01842B952BA62B8B
:1022A000B72B8093A8019093A901A093AA01B093A2
:1022B000AB010C94CB0C41E050E060E070E004C056
:1022C000440F551F661F771F8A95D2F7409550958A
:1022D000609570958091A8019091A901A091AA01A3
:1022E000B091AB0184239523A623B7238093A80143
:1022F0009093A901A093AA01B093AB010C94CB0CCD
:1023000041E050E060E070E004C0440F551F661FDC
:10231000771F8A95D2F78091A8019091A901A09189
:10232000AA01B091AB0184279527A627B7278093F0
:10233000A8019093A901A093AA01B093AB010C94BA
:10234000CB0C0F931F930091A8011091A90120912C
:10235000AA013091AB01DC01CB01802B912BA22B88
:10236000B32B8093A8019093A901A093AA01B093E5
:10237000AB011F910F910C94CB0C0F931F93009105
:10238000A8011091A9012091AA013091AB01DC01B3
:10239000CB0180239123A223B3238093A8019093A0
:1023A000A901A093AA01B093AB011F910F910C94C6
:1023B000CB0C0F931F930091A8011091A9012091BC
:1023C000AA013091AB01DC01CB0180279127A22724
:1023D000B3278093A8019093A901A093AA01B09379
:1023E000AB011F910F910C94CB0C0895CF93DF9309
:1023F000262F990F990F890F982F9770E1E001C050
:10240000EE0F9A95EAF786958695869590E065E0B9
:1024100070E00E941321DC01A756BE4F50E040E05F
:10242000622F70E08D91ED0121979B01042E02C077
:10243000369527950A94E2F72170219528272E23B7
:10244000282728834F5F5F4F4530510559F7DF91AB
:10245000CF910895990F990F890FA82FA77086958E
:102460008695869590E065E070E00E941321BC019E
:1024700050E040E080E0FB01E40FF51FE756FE4F1F
:10248000208130E00A2E02C0369527950A94E2F7A3
:1024900021703327042E01C0220F0A94EAF7822B01
:1024A0004F5F5F4F4530510531F70895BF92CF928E
:1024B000DF92EF92FF920F931F93CF93DF938C01E4
:1024C000C090A801D090A901E090AA01F090AB01C2
:1024D0008091AC019091AD01A091AE01B091AF019E
:1024E000C82AD92AEA2AFB2ACFE1D0E0BC2ED7019C
:1024F000C6010C2E04C0B695A795979587950A94AA
:10250000D2F780FD0EC0219788F7B12C8B2DDF917B
:10251000CF911F910F91FF90EF90DF90CF90BF90E0
:102520000895B8018C2F0E949C04019761F3EECFAF
:10253000CF93DF93EC010E945612BE01DF91CF9141
:102540000C949C041F93CF93DF93EB019091600157
:10255000992331F0CB01DF91CF911F910C94981208
:10256000882379F0CB010E945612182F682FCE01D4
:102570000E94F611BE01812FDF91CF911F910C9423
:102580009C04CB010E942A12182FF4CF8091B00135
:1025900085958595859508958091B00187700895FA
:1025A000982F990F990F990F692B6093B0010C9494
:1025B0003A119091B001809589238093B001282F22
:1025C000277061F4282F082E000C330B9217130686
:1025D00029F08595859585950C945B1108959091CA
:1025E000B001977081E009F480E0089590911201A4
:1025F0009923E1F09091060297FF18C0E82FE69525
:10260000E695E695EF3139F1209100013091010115
:10261000E20FF32FF11D877021E030E001C0220F9F
:102620008A95EAF78181822B8183089520910001A8
:1026300030910101F90132969FEF40E051918517E9
:1026400051F09F3F19F4511101C0942F4F5F4E314B
:10265000A9F79F3F09F40895290F311D97FD3A9579
:10266000F90182830895909112019923F1F09091DC
:10267000060297FF1AC0E82FE695E695E695EF313A
:1026800029F12091000130910101E20FF32FF11D9A
:10269000282F277081E090E001C0880F2A95EAF783
:1026A0008095918189238183089520910001309143
:1026B0000101F9013296205E3F4F9191891303C0C9
:1026C000DF0111971C92E217F307B9F7089581E033
:1026D00090E0E0910001F0910101E80FF91F1082F4
:1026E000019680329105A9F708959091D401892B24
:1026F0008093D4010895982F90958091D4018923D7
:102700008093D40108951092D40108959091D3013B
:10271000892B8093D3010895982F90958091D301B0
:1027200089238093D30108951092D3010895909145
:10273000D201892B8093D2010895982F9095809192
:10274000D20189238093D20108951092D201089575
:102750008093B10108951092B10108952091000174
:1027600030910101F9013196205E3F4F80E0919157
:1027700091118F5FE217F307D1F70895E0910001FF
:10278000F09101018091D4018083E0910001F091EA
:10279000010180819091D301892B8083E091000118
:1027A000F091010180819091D201892B80839091D9
:1027B000B101992361F0E0910001F0910101808164
:1027C000892B80830E94AE1381111092B1018091F8
:1027D0000001909101010C9402086DEE7EEF90E0F3
:1027E00080E00E94722160E082E090E00E9460211F
:1027F00060E083E090E00E94602160E084E090E08F
:102800000E94602160E085E090E00E94602160E02D
:1028100086E090E00C94602190E080E00E945A21D4
:1028200021E08D3E9E4F09F020E0822F089582E046
:1028300090E00C945221682F82E090E00C9460218B
:1028400083E090E00C945221682F83E090E00C9498
:10285000602184E090E00C945221682F84E090E0A5
:102860000C94602186E090E00C945221682F86E061
:1028700090E00C94602180910D02843051F110920F
:10288000D60188E190E020E40FB6F894A8958093F3
:1028900060000FBE2093600080E00E944C0480E046
:1028A0000E947A0483B7817F846083BF83B781608D
:1028B00083BF7894889583B78E7F83BF0FB6F894D3
:1028C000A8958091600088618093600010926000FC
:1028D0000FBE089508950895CF930E946A140E9430
:1028E0004C070E946B14C0E08C2F0E94EA078111F4
:1028F00005C0CF5FC630C1F7CF91089581E0FCCF0E
:102900000E94DF0C0E94B0180E94F6070C947A0413
:102910001F920F920FB60F9211248F939F93AF9334
:10292000BF938091D601811113C0809102029091D2
:102930000302A0910402B09105024196A11DB11DB0
:102940008093020290930302A0930402B0930502C5
:10295000BF91AF919F918F910F900FBE0F901F90DD
:10296000189582E084BD93E095BD9AEF97BD809362
:102970006E0008952FB7F89480910202909103029F
:10298000A0910402B09105022FBF0895CF92DF926B
:10299000EF92FF920F931F932FB7F894409102028A
:1029A0005091030260910402709105022FBF6A01E9
:1029B0007B01EE24FF248C0130E020E0C016D1061C
:1029C000E206F30650F0481B590BCA011F910F9104
:1029D000FF90EF90DF90CF90089541505109F3CFD1
:1029E0001F920F920FB60F9211248F939F93AF9364
:1029F000BF938091020290910302A0910402B091D2
:102A000005020196A11DB11D80930202909303025D
:102A1000A0930402B0930502BF91AF919F918F9153
:102A20000F900FBE0F901F9018950E941A1DF894DA
:102A30002FEF87EA91E6215080409040E1F700C0F7
:102A4000000087E090EBDC01809316029093170260
:102A5000A0931802B093190288E19CE00FB6F89495
:102A6000A895809360000FBE90936000FFCFCF9237
:102A7000DF92EF92FF920F931F93CF93C0E0E82E67
:102A8000F12C8C2F0E94EA0710E000E0C82ED12C18
:102A9000C601002E02C0959587950A94E2F780FD45
:102AA00011C00F5F1F4F0430110591F7CF5FC63083
:102AB00041F780E0CF911F910F91FF90EF90DF9051
:102AC000CF900895602F7C2F80E00E947D04E8164F
:102AD000F90639F781E0EECFCF93C82F8CE20E9440
:102AE0003715882321F08C2FCF910C94371580E077
:102AF000CF910895CF930E940C14811102C00E94BF
:102B0000ED13C5E608C00E944C078FE39CE90197CE
:102B1000F1F700C00000C150B1F789E20E946C15C6
:102B20008111EFC08AE20E946C1581110E94ED13A1
:102B300085E00E946C1581110E9415150E941714E2
:102B40008093D50187E00E946C15882371F08BE19A
:102B50000E946C15882309F4B1C09091D501892F8A
:102B60008D7F91FF82608093D5018091D5010E9475
:102B70001B140E94291490E0909307028093060290
:102B800080EE0E946C15882341F090910602892FF7
:102B90008E7F90FF81608093060289E30E946C150E
:102BA000882341F090910602892F8D7F91FF8260EA
:102BB0008093060282EE0E946C15882341F090916A
:102BC0000602892F8B7F92FF84608093060286EE37
:102BD0000E946C15882341F090910602892F877F0F
:102BE00093FF88608093060283EE0E946C15882311
:102BF00041F090910602892F8F7E94FF806180932F
:102C0000060285E30E946C15882341F0909106022C
:102C1000892F8F7D95FF80628093060281E30E9459
:102C20006C15882341F090910602892F8F7B96FFC7
:102C300080648093060281E10E946C15882341F034
:102C400090910602892F97FB87F98058809306029E
:102C5000809106020E942D1487E20E946C15C82FF5
:102C60008EE10E946C158111C2608FE10E946C158B
:102C70008111C46080E20E946C158111C86081E2FC
:102C80000E946C158111C06182E20E946C15811155
:102C9000C06283E20E946C158111C06484E20E94CC
:102CA0006C15882341F1C0688C2F0E9424146C2F6E
:102CB00070E090E080E0CF910C94BD108EE00E9417
:102CC0006C15882339F09091D501892F8B7F92FF65
:102CD000846049CF80E10E946C159091D5018823D2
:102CE00029F0892F877F93FF88603DCF892F8E7FC2
:102CF00090FF816038CFC111D7CF0E942014682F78
:102D0000D7CFCF9108958091D90180FF11C08091D4
:102D1000050190E065E070E00E941321959587958C
:102D20009595879580389105B0F50097B1F1089594
:102D300081FF0AC08091050190E065E070E00E948B
:102D4000132195958795EECF82FF08C080910501EC
:102D500090E065E070E00E941321E4CF3091DA0149
:102D60003323B1F0209104018091050190E065E0EA
:102D700070E00E941321BC013217A0F6832F90E06F
:102D80000E941321622F70E00E942421CB01CACF40
:102D900085E090E008958FE7089581E0089580919F
:102DA000D90180FF0CC06091030170E075956795B3
:102DB000759567956115710559F1862F089581FF05
:102DC00006C06091030170E075956795F3CF60913F
:102DD000030170E082FD0CC06091DA016623A9F066
:102DE000209102018091030190E0621730F0BC0154
:102DF00060387105F8F28FE7089570E00E941321A2
:102E0000622F70E00E942421F3CF61E070E0D5CF03
:102E100081E00895803F31F40E948316819580936C
:102E2000DD010895813F19F40E948316F8CF823F97
:102E300031F40E94831681958093DC010895833FCD
:102E400019F40E948316F8CF893F29F40E94CF1607
:102E50008093DE0108958A3F21F40E94CF16819568
:102E6000F7CF8B3F31F40E94CF1681958093DF011D
:102E700008958C3F19F40E94CF16F8CF843F31F4A7
:102E80008091DB0181608093DB010895853F21F40F
:102E90008091DB018260F7CF863F21F48091DB01D6
:102EA0008460F1CF873F21F48091DB018860EBCF14
:102EB000883F21F48091DB018061E5CF8D3F31F4C3
:102EC0008091D90181608093D90108958E3F21F4CA
:102ED0008091D9018260F7CF8F3FB9F78091D901F6
:102EE0008460F1CF803FC1F48091DD0187FD1092B5
:102EF000DD018091DC0181110EC08091DD01811125
:102F00000AC08091DE01811106C08091DF0181112C
:102F100002C01092DA010895813F29F48091DD0109
:102F200018162CF3E6CF9091DC01823F29F497FF2D
:102F3000E0CF1092DC01DDCF833F19F41916CCF3FA
:102F4000D8CF893F39F48091DE01181694F610929B
:102F5000DE01CFCF8A3F29F48091DE0187FFC9CF00
:102F6000F6CF8B3F39F48091DF0187FFC2CF1092FB
:102F7000DF01BFCF8C3F29F48091DF011816BCF32D
:102F8000B8CF843F31F48091DB018E7F8093DB01E9
:102F9000B0CF853F21F48091DB018D7FF7CF863F55
:102FA00021F48091DB018B7FF1CF873F21F4809169
:102FB000DB01877FEBCF883F21F48091DB018F7E9F
:102FC000E5CF8D3F31F48091D9018E7F8093D90177
:102FD00090CF8E3F21F48091D9018D7FF7CF8F3F25
:102FE00009F087CF8091D9018B7FF0CF8BED91E0F5
:102FF0000E940D080E94BA149093D8018093D701C3
:1030000008951F93CF93DF938091D7019091D801BA
:103010000E94C614FC012091DA018091060190E023
:10302000211107C08091070190E06AE070E00E94E2
:103030001321E817F90780F08091DC01C091DD01D0
:103040001091DE01D091DF0181110AC0C11178C059
:10305000111176C0D11174C0DF91CF911F910895E5
:103060002F3F19F02F5F2093DA01181624F40E94E5
:1030700083168093DC018091DC0187FF05C00E94EC
:10308000831681958093DC011C1624F40E9483161C
:103090008093DD018091DD0187FF05C00E948316CA
:1030A00081958093DD016091DC01662331F1C0914F
:1030B000DD01CC2311F1062E000C770B880B990B48
:1030C0000E94122023E333E343E35FE30E94762070
:1030D0000E94DA1F6093DC016C2FCC0F770B880BFA
:1030E000990B0E94122023E333E343E35FE30E9442
:1030F00076200E94DA1F6093DD01111624F40E94ED
:10310000CF168093DE018091DE0187FF05C00E940B
:10311000CF1681958093DE011D1624F40E94CF16F0
:103120008093DF018091DF0187FF05C00E94CF16E9
:1031300081958093DF01DF91CF911F910C94F61759
:103140002F3F09F08FCFA0CF85E0EBEDF1E0DF015D
:103150001D928A95E9F71092DA011092D90108952B
:103160000E940C14811102C00E94ED130E943214BF
:103170008093080280FF03C086950C944C0480E085
:10318000FCCF80910802982F9695933030F49F5F82
:10319000990F8170892B80930802809108028160C9
:1031A000809308020E9436148091080286950C9440
:1031B0004C0480910802982F9E7F79F08250809372
:1031C00008028E7F91E009F490E08091080290FB64
:1031D00080F9809308020E94361480910802869537
:1031E0000C944C0490910802892F8E7F90FF81608F
:1031F000809308020E9436148091080280FF03C069
:1032000086950C944C0480E0FCCF90910802892FA5
:1032100086958F5F8F7791708430B8F4880F892BF3
:1032200080930802809108028E7F91E009F490E07B
:103230008091080290FB80F9809308020E94361466
:103240008091080286950C944C0490930802EACF72
:1032500090910802292F26958227880F9170982B2C
:10326000909308029E7F21E009F420E080910802FB
:1032700020FB80F9809308020E9436148091080296
:1032800086950C944C04809100020895CF93DF93AF
:1032900000D01F92CDB7DEB79C0180910D02843023
:1032A00019F593E099833B832A839093E9008FEF8C
:1032B0009091E800815095FD06C095ED9A95F1F743
:1032C00000008111F5CF8091E80085FF0DC050E02E
:1032D00040E063E070E0CE0101960E94901B809177
:1032E000E8008E778093E8000F900F900F90DF91A9
:1032F000CF910895CF93DF9300D01F92CDB7DEB763
:1033000020910D02243031F522E029838058910963
:103310009B838A8383E08093E9008FEF9091E8009C
:10332000815095FD06C095ED9A95F1F70000811149
:10333000F5CF8091E80085FF0DC050E040E063E0EC
:1033400070E0CE0101960E94901B8091E8008E777C
:103350008093E8000F900F900F90DF91CF91089528
:103360009C0180910D028430F9F482E08093E900A1
:103370009FEF8091E800915085FD06C085ED8A950C
:10338000F1F700009111F5CF8091E80085FF0CC0A6
:1033900050E040E065E070E0C9010E94901B809120
:1033A000E8008E778093E8000895CF93DF93EC01D7
:1033B00080910D028430F1F4909112019923E9F08B
:1033C0009091060297FF19C08093E9008FEF9091CA
:1033D000E800815095FD06C095E19A95F1F700004F
:1033E0008111F5CF8091E80050E040E060E270E0AC
:1033F00085FD1AC0DF91CF91089581E08093E900A7
:103400008FEF9091E800815095FD06C095ED9A955B
:10341000F1F700008111F5CF8091E80085FFEACF38
:1034200050E040E068E070E0CE010E94901B809187
:10343000E8008E778093E80080E2FE01A0EEB1E024
:1034400001900D928A95E1F7D5CF089508950C94D7
:10345000801442E061EC81E00E94981C42E061EC43
:1034600082E00E94981C42E061EC83E00E94981C7C
:1034700042E261EC84E00C94981C80910F0283304E
:1034800009F455C030F4813071F1823009F491C0F3
:1034900008958A3009F47DC08B3009F463C0893007
:1034A00009F044C080910E02813209F03FC0809142
:1034B000120290911302009711F00397B9F58091D1
:1034C000E800877F8093E8008091E80082FF2AC0AF
:1034D0008091F100809300028091E8008B778093C7
:1034E000E8000C94CC1C80910E02813AF9F4809192
:1034F000E800877F8093E800809112029091130288
:10350000892B61F460E280EE91E070E00E94DF1BA5
:103510008091E8008B778093E800089560E090E068
:1035200080E0F3CF80910D028111CECF089580917C
:103530000E02813AD9F78091120290911302892BE1
:10354000A9F78091E800877F8093E8008091E800E8
:1035500080FFFCCF809112018093F1008091E80000
:103560008E77BDCF80910E02813201F780911202D9
:1035700090911302892BD1F68091E800877F809388
:10358000E8000E94CC1C80911002809312010C94E0
:10359000DF0C80910E02813249F68091E800877F2E
:1035A0008093E8000E94CC1C80911102809301025C
:1035B000089580910E02813A09F0B8CF8091E80019
:1035C000877F8093E8008091E80080FFFCCF8091A6
:1035D0000102C2CF84B7877F84BF0FB6F894A89545
:1035E00080916000886180936000109260000FBE3F
:1035F00080E880936100109261000E9445080E945B
:103600001A1D0E946D1D8091E20084608093E2008B
:1036100078940E94BE1F0E94470888E091E00E94B3
:10362000F10780910D02853019F00E944F08F9CF03
:103630000E943B1480910B02882399F30E946C1422
:10364000882379F30E947A1BECCF292F332723306C
:10365000310579F158F421303105F1F0223031058E
:1036600019F190E080E030E020E01AC0213231050D
:1036700099F122323105A9F7643098F770E0FB0127
:10368000EE0FFF1FEF5DFE4F20813181635E7E4FA5
:10369000FB01808190E004C082E190E021E134E010
:1036A000FA013183208308958DE690E024EA33E027
:1036B000F7CF99278130910561F028F0029789F6BC
:1036C000E4E7F3E002C0E0EAF3E0849190E09F01D8
:1036D000E7CFE8E8F3E0F9CF643008F0C2CFE62F97
:1036E000F0E0EE0FFF1FE75DFE4F2081318189E0A2
:1036F00090E0D6CF84E089BD86E089BD09B400FEA4
:10370000FDCF8091D8008F7D8093D8008091E0001C
:1037100082608093E0008091E00081FDFCCF0895FD
:10372000AF92BF92CF92DF92FF920F931F93CF93EE
:10373000DF936C01EB018A010E94EB1CF82E8111D2
:1037400023C00115110539F0F80180819181C81B52
:10375000D90BC80ED91EB12CA12C2097A9F08091AD
:10376000E80085FD22C08091E8008E778093E80014
:1037700001151105A1F0F80180819181A80EB91EF3
:10378000B182A08285E0F82E8F2DDF91CF911F911D
:103790000F91FF90DF90CF90BF90AF9008950E945F
:1037A000EB1C8823D1F2F82EEFCFF60181916F0147
:1037B0008093F1002197FFEFAF1ABF0ACECFFC0133
:1037C000809114029091150286179707A0F0611559
:1037D000710529F49091E8009E779093E80090E0BD
:1037E0006115710551F4911108C08091E80082FFC4
:1037F00032C080E00895BC01F2CF80910D02882391
:10380000B1F18530B1F18091E80083FD2EC0809147
:10381000E80082FDEACF8091E80080FFE1CF2091AF
:10382000F20030E06115710519F02830310558F0CB
:1038300091E02830310509F090E02091E8002E77E2
:103840002093E800CDCF81918093F1006150710900
:103850002F5F3F4FE7CF80910D02882341F08530E5
:1038600041F08091E80083FFC0CF81E0089582E0BD
:10387000089583E00895FC0180911402909115024F
:1038800086179707A0F06115710529F48091E8006B
:103890008E778093E80090E06115710551F49111E5
:1038A00008C08091E80082FF33C080E00895BC0129
:1038B000F2CF80910D028823B9F18530B9F1809162
:1038C000E80083FD2FC08091E80082FDEACF80915F
:1038D000E80080FFE1CF2091F20030E06115710532
:1038E00019F02830310558F091E02830310509F001
:1038F00090E08091E8008E778093E800CDCF8491AE
:103900008093F1003196615071092F5F3F4FE6CFF0
:1039100080910D02882341F0853041F08091E800CC
:1039200083FFBFCF81E0089582E0089583E008958A
:10393000982F953028F08F708093E90081E00895EA
:103940009093E900242F762F50E0981731F0709172
:10395000EC002091ED005091F00021FD02C09F5F2E
:10396000E8CF3091EB003E7F3093EB003091ED00DB
:103970003D7F3093ED003091EB0031603093EB00F0
:103980007093EC002093ED005093F0002091EE0036
:1039900027FDE5CF80E0089580910E0287FF13C0D8
:1039A0008091E80082FF06C08091E8008B778093C9
:1039B000E80004C080910D028111F2CF089580913A
:1039C0000D028823D9F38091E80080FFF8CF809121
:1039D000E8008E77ECCF2091E4003091E50085E699
:1039E0009091EC0090FF06C09091E80090FF06C017
:1039F00080E008959091E80092FDFACF90910D0239
:103A0000992391F0953091F09091EB0095FD10C0C5
:103A10004091E4005091E5002417350709F38150E7
:103A20009A01F1F684E0089582E0089583E0089514
:103A300081E008950E94771D0E947A1DE0EEF0E07B
:103A4000808181608083E8EDF0E080818F778083E2
:103A500019BCE3E6F0E080818160808310920C0263
:103A600008950E94771D0E947A1D8091D8008F775B
:103A70008093D8008091D80080688093D80080918E
:103A8000D8008F7D8093D80084E089BD86E089BD11
:103A900009B400FEFDCF10920D021092090210929F
:103AA0000B0210920A0242E060E080E00E94981C43
:103AB0008091E1008E7F8093E1008091E20081603F
:103AC0008093E2008091E20088608093E200809120
:103AD000E0008E7F8093E0000895E3E6F0E08081CF
:103AE0008E7F808381E080930C020C94311D1092B4
:103AF000E20008951092E10008951F920F920FB610
:103B00000F9211242F933F934F935F936F937F9363
:103B10008F939F93AF93BF93EF93FF938091E100B7
:103B200082FF0BC08091E20082FF07C08091E1001C
:103B30008B7F8093E1000E94BD1F8091E10080FF98
:103B400019C08091E20080FF15C08091E2008E7F55
:103B50008093E2008091E20080618093E200809196
:103B6000D80080628093D80019BC85E080930D0254
:103B70000E94261A8091E10084FF29C08091E20012
:103B800084FF25C084E089BD86E089BD09B400FEBC
:103B9000FDCF8091D8008F7D8093D8008091E10087
:103BA0008F7E8093E1008091E2008F7E8093E2001F
:103BB0008091E20081608093E20080910902882375
:103BC00009F443C084E080930D020E94271A80917B
:103BD000E10083FF29C08091E20083FF25C080912E
:103BE000E100877F8093E10082E080930D021092D4
:103BF00009028091E1008E7F8093E1008091E200D4
:103C00008E7F8093E2008091E20080618093E200E9
:103C100042E060E080E00E94981C8091F0008860A3
:103C20008093F0000E94251AFF91EF91BF91AF9110
:103C30009F918F917F916F915F914F913F912F91C4
:103C40000F900FBE0F901F9018958091E30087FD95
:103C500002C081E0B8CF83E0B6CF1F920F920FB6BB
:103C60000F9211242F933F934F935F936F937F9302
:103C70008F939F93AF93BF93CF93EF93FF93C09195
:103C8000E900CF708091EC001092E9008091F00083
:103C9000877F8093F00078940E94691E1092E9005B
:103CA0008091F00088608093F000C093E900FF915C
:103CB000EF91CF91BF91AF919F918F917F916F9134
:103CC0005F914F913F912F910F900FBE0F901F90DA
:103CD00018951F93CF93DF93CDB7DEB7AA970FB692
:103CE000F894DEBF0FBECDBFEEE0F2E08091F100B0
:103CF000819322E0E631F207C9F70E943D1A8091D4
:103D0000E80083FF42C080910E0290910F029A302A
:103D100008F03BC0E92FF0E0E057F14E0C94382159
:103D20009A1EBE1EC51EBE1EC51E191F3B1FC51EE8
:103D3000901F9D1F803879F0823839F580911202EA
:103D40008F708093E9008091EB0085FB882780F9D4
:103D50001092E90006C080910A0290910B02911125
:103D600082609091E800977F9093E8008093F10043
:103D70001092F1008091E8008E772DC0282F2D7FC2
:103D800021F48823D1F0823059F18091E80083FF3B
:103D90000AC08091E800877F8093E8008091EB0063
:103DA00080628093EB00AA960FB6F894DEBF0FBE38
:103DB000CDBFDF91CF911F91089580911002813086
:103DC00021F7933009F080E080930B021092E90014
:103DD0008091E800877F8093E8000E94CC1CD5CFBB
:103DE000809110028111F2CF809112028F7069F2DE
:103DF0008093E9002091EB0020FFE8CF933031F46D
:103E00008091EB0080628093EB00E0CF9091EB001B
:103E100090619093EB0021E030E001C0220F8A9581
:103E2000EAF72093EA001092EA008091EB008860A4
:103E3000EACF8111AACF109110021F778091E30081
:103E40008078812B8093E3008091E800877F8093C6
:103E5000E8000E94CC1C8091E80080FFFCCF80919C
:103E6000E30080688093E30083E0111101C082E0E9
:103E700080930D028ACF8058823008F086CF8091DF
:103E80001002909111028C3D23E09207A1F583E08E
:103E90008A838AE289834FB7F894DE01139620E083
:103EA0003EE051E2E32FF0E050935700E49120FF11
:103EB00003C0E295EF703F5FEF708E2F90E0EA3025
:103EC000C0F0C7968D939D932F5F243159F74FBF54
:103ED0008091E800877F8093E8006AE270E0CE017D
:103EE00001960E94DF1B8091E8008B778093E800A9
:103EF0004CCFC096E7CFAE014F5F5F4F609112028B
:103F00000E94251BBC01892B09F43FCF9091E8004A
:103F1000977F9093E80089819A810E943B1CE3CFB0
:103F2000803809F032CF8091E800877F8093E800E5
:103F3000809109028093F1001DCF811126CF9091CD
:103F40001002923008F021CF8091E800877F8093A3
:103F5000E800909309020E94CC1C809109028823FA
:103F600031F084E080930D020E94291A0ECF8091D7
:103F7000E30087FDF6CF81E0F5CF0895CF938091E0
:103F80000D02882399F0C091E900CF708091EC0078
:103F900080FD0EC080E0C82B1092E9008091E800FF
:103FA00083FD0E94691ECF70C093E900CF910895F0
:103FB00080E8F1CF0E94E11F6894B1110C94702049
:103FC00008950E94552088F09F5798F0B92F99279F
:103FD000B751B0F0E1F0660F771F881F991F1AF0F4
:103FE000BA95C9F714C0B13091F00E946F20B1E0CA
:103FF00008950C946F20672F782F8827B85F39F0C9
:10400000B93FCCF3869577956795B395D9F73EF48C
:1040100090958095709561957F4F8F4F9F4F089534
:10402000E89409C097FB3EF4909580957095619552
:104030007F4F8F4F9F4F9923A9F0F92F96E9BB2708
:104040009395F695879577956795B795F111F8CF84
:10405000FAF4BB0F11F460FF1BC06F5F7F4F8F4FEF
:104060009F4F16C0882311F096E911C0772321F0E5
:104070009EE8872F762F05C0662371F096E8862F7D
:1040800070E060E02AF09A95660F771F881FDAF7D4
:10409000880F9695879597F9089557FD9058440F86
:1040A000551F59F05F3F71F04795880F97FB991F97
:1040B00061F09F3F79F08795089512161306140654
:1040C000551FF2CF4695F1DF08C0161617061806E1
:1040D000991FF1CF86957105610508940895E894BC
:1040E000BB2766277727CB0197F908950E94882080
:1040F0000C9402210E94F42038F00E94FB2020F052
:10410000952311F00C94EB200C94F1200C9470206A
:104110000E944D2078F39923C9F35523B9F3950FE5
:1041200050E0551FAA27EE27FF27BB27002408943D
:10413000679520F4E20FF31FB41F0A1E220F331FEE
:10414000441FAA1F6695A9F7779530F4F30FB41FA3
:104150000A1E121E08F46395330F441FAA1F221F64
:10416000769599F7879520F4B40F0A1E121E631FE7
:10417000440FAA1F221F331F8695A9F7862F712D82
:10418000602D11249F5750409AF0F1F088234AF097
:10419000EE0FFF1FBB1F661F771F881F91505040F7
:1041A000A9F79E3F510580F00C94EB200C947020F1
:1041B0005F3FE4F3983ED4F3869577956795B7957E
:1041C000F795E7959F5FC1F7FE2B880F911D969598
:1041D000879597F9089597F99F6780E870E060E008
:1041E00008959FEF80EC089500240A941616170690
:1041F00018060906089500240A94121613061406D8
:1042000005060895092E0394000C11F4882352F03A
:10421000BB0F40F4BF2B11F460FF04C06F5F7F4FF2
:104220008F4F9F4F08950024552704C0080E591F33
:10423000880F991F009729F076956795B8F3710557
:10424000B9F7802D952F089597FB072E16F400944B
:1042500007D077FD09D00E943E2107FC05D03EF42F
:10426000909581959F4F0895709561957F4F089522
:10427000EE0FFF1F0590F491E02D0994AA1BBB1BC4
:1042800051E107C0AA1FBB1FA617B70710F0A61B56
:10429000B70B881F991F5A95A9F780959095BC0177
:1042A000CD010895F999FECF92BD81BDF89A992765
:1042B00080B50895A8E1B0E042E050E00C947A2186
:1042C000262FF999FECF92BD81BDF89A019700B4CF
:1042D000021639F01FBA20BD0FB6F894FA9AF99A6F
:1042E0000FBE08950196272F0E9461210C94602132
:1042F000DC01CB01FC01F999FECF06C0F2BDE1BDA6
:10430000F89A319600B40D9241505040B8F7089594
:04431000F894FFCF4F
:10431400B2012808140A321E4319D519B0197A19A2
:1043240046190134659291643093949596404D36C4
:1043340039DF0492045C042304B603CF03E80301C9
:02434400040073
:00000001FF
